{
  "address": "0xDc64a140Aa3E981100a9becA4E685f962f0cF6C9",
  "abi": [
    {
      "inputs": [
        {
          "internalType": "address",
          "name": "vrfCoordinatorV2",
          "type": "address"
        },
        {
          "internalType": "bytes32",
          "name": "gasLane",
          "type": "bytes32"
        },
        {
          "internalType": "uint64",
          "name": "subscriptionId",
          "type": "uint64"
        },
        {
          "internalType": "uint32",
          "name": "callbackGasLimit",
          "type": "uint32"
        }
      ],
      "stateMutability": "nonpayable",
      "type": "constructor"
    },
    {
      "inputs": [
        {
          "internalType": "address",
          "name": "have",
          "type": "address"
        },
        {
          "internalType": "address",
          "name": "want",
          "type": "address"
        }
      ],
      "name": "OnlyCoordinatorCanFulfill",
      "type": "error"
    },
    {
      "anonymous": false,
      "inputs": [
        {
          "indexed": true,
          "internalType": "address",
          "name": "owner",
          "type": "address"
        },
        {
          "indexed": true,
          "internalType": "address",
          "name": "approved",
          "type": "address"
        },
        {
          "indexed": true,
          "internalType": "uint256",
          "name": "tokenId",
          "type": "uint256"
        }
      ],
      "name": "Approval",
      "type": "event"
    },
    {
      "anonymous": false,
      "inputs": [
        {
          "indexed": true,
          "internalType": "address",
          "name": "owner",
          "type": "address"
        },
        {
          "indexed": true,
          "internalType": "address",
          "name": "operator",
          "type": "address"
        },
        {
          "indexed": false,
          "internalType": "bool",
          "name": "approved",
          "type": "bool"
        }
      ],
      "name": "ApprovalForAll",
      "type": "event"
    },
    {
      "anonymous": false,
      "inputs": [
        {
          "indexed": true,
          "internalType": "uint256",
          "name": "tokneId",
          "type": "uint256"
        },
        {
          "indexed": true,
          "internalType": "string",
          "name": "tokenURI",
          "type": "string"
        }
      ],
      "name": "CreatedRandomSVG",
      "type": "event"
    },
    {
      "anonymous": false,
      "inputs": [
        {
          "indexed": true,
          "internalType": "uint256",
          "name": "tokenId",
          "type": "uint256"
        },
        {
          "indexed": true,
          "internalType": "uint256",
          "name": "randomNumber",
          "type": "uint256"
        }
      ],
      "name": "CreatedUnfinishedRandomSVG",
      "type": "event"
    },
    {
      "anonymous": false,
      "inputs": [
        {
          "indexed": true,
          "internalType": "uint256",
          "name": "requestId",
          "type": "uint256"
        },
        {
          "indexed": true,
          "internalType": "uint256",
          "name": "tokenId",
          "type": "uint256"
        },
        {
          "indexed": true,
          "internalType": "address",
          "name": "sender",
          "type": "address"
        }
      ],
      "name": "RequestedRandomSVG",
      "type": "event"
    },
    {
      "anonymous": false,
      "inputs": [
        {
          "indexed": true,
          "internalType": "address",
          "name": "from",
          "type": "address"
        },
        {
          "indexed": true,
          "internalType": "address",
          "name": "to",
          "type": "address"
        },
        {
          "indexed": true,
          "internalType": "uint256",
          "name": "tokenId",
          "type": "uint256"
        }
      ],
      "name": "Transfer",
      "type": "event"
    },
    {
      "inputs": [
        {
          "internalType": "address",
          "name": "to",
          "type": "address"
        },
        {
          "internalType": "uint256",
          "name": "tokenId",
          "type": "uint256"
        }
      ],
      "name": "approve",
      "outputs": [],
      "stateMutability": "nonpayable",
      "type": "function"
    },
    {
      "inputs": [
        {
          "internalType": "address",
          "name": "owner",
          "type": "address"
        }
      ],
      "name": "balanceOf",
      "outputs": [
        {
          "internalType": "uint256",
          "name": "",
          "type": "uint256"
        }
      ],
      "stateMutability": "view",
      "type": "function"
    },
    {
      "inputs": [
        {
          "internalType": "uint256",
          "name": "",
          "type": "uint256"
        }
      ],
      "name": "colors",
      "outputs": [
        {
          "internalType": "string",
          "name": "",
          "type": "string"
        }
      ],
      "stateMutability": "view",
      "type": "function"
    },
    {
      "inputs": [],
      "name": "createNFT",
      "outputs": [
        {
          "internalType": "uint256",
          "name": "requestId",
          "type": "uint256"
        }
      ],
      "stateMutability": "nonpayable",
      "type": "function"
    },
    {
      "inputs": [
        {
          "internalType": "uint256",
          "name": "_tokenId",
          "type": "uint256"
        }
      ],
      "name": "finishMint",
      "outputs": [],
      "stateMutability": "nonpayable",
      "type": "function"
    },
    {
      "inputs": [
        {
          "internalType": "uint256",
          "name": "tokenId",
          "type": "uint256"
        }
      ],
      "name": "getApproved",
      "outputs": [
        {
          "internalType": "address",
          "name": "",
          "type": "address"
        }
      ],
      "stateMutability": "view",
      "type": "function"
    },
    {
      "inputs": [],
      "name": "getTokenCounter",
      "outputs": [
        {
          "internalType": "uint256",
          "name": "",
          "type": "uint256"
        }
      ],
      "stateMutability": "view",
      "type": "function"
    },
    {
      "inputs": [
        {
          "internalType": "address",
          "name": "owner",
          "type": "address"
        },
        {
          "internalType": "address",
          "name": "operator",
          "type": "address"
        }
      ],
      "name": "isApprovedForAll",
      "outputs": [
        {
          "internalType": "bool",
          "name": "",
          "type": "bool"
        }
      ],
      "stateMutability": "view",
      "type": "function"
    },
    {
      "inputs": [],
      "name": "maxNumberOfPathCommands",
      "outputs": [
        {
          "internalType": "uint256",
          "name": "",
          "type": "uint256"
        }
      ],
      "stateMutability": "view",
      "type": "function"
    },
    {
      "inputs": [],
      "name": "maxNumberOfPaths",
      "outputs": [
        {
          "internalType": "uint256",
          "name": "",
          "type": "uint256"
        }
      ],
      "stateMutability": "view",
      "type": "function"
    },
    {
      "inputs": [],
      "name": "name",
      "outputs": [
        {
          "internalType": "string",
          "name": "",
          "type": "string"
        }
      ],
      "stateMutability": "view",
      "type": "function"
    },
    {
      "inputs": [
        {
          "internalType": "uint256",
          "name": "tokenId",
          "type": "uint256"
        }
      ],
      "name": "ownerOf",
      "outputs": [
        {
          "internalType": "address",
          "name": "",
          "type": "address"
        }
      ],
      "stateMutability": "view",
      "type": "function"
    },
    {
      "inputs": [
        {
          "internalType": "uint256",
          "name": "",
          "type": "uint256"
        }
      ],
      "name": "pathCommands",
      "outputs": [
        {
          "internalType": "string",
          "name": "",
          "type": "string"
        }
      ],
      "stateMutability": "view",
      "type": "function"
    },
    {
      "inputs": [
        {
          "internalType": "uint256",
          "name": "requestId",
          "type": "uint256"
        },
        {
          "internalType": "uint256[]",
          "name": "randomWords",
          "type": "uint256[]"
        }
      ],
      "name": "rawFulfillRandomWords",
      "outputs": [],
      "stateMutability": "nonpayable",
      "type": "function"
    },
    {
      "inputs": [
        {
          "internalType": "uint256",
          "name": "",
          "type": "uint256"
        }
      ],
      "name": "requestIdToSender",
      "outputs": [
        {
          "internalType": "address",
          "name": "",
          "type": "address"
        }
      ],
      "stateMutability": "view",
      "type": "function"
    },
    {
      "inputs": [
        {
          "internalType": "uint256",
          "name": "",
          "type": "uint256"
        }
      ],
      "name": "requestIdToTokenId",
      "outputs": [
        {
          "internalType": "uint256",
          "name": "",
          "type": "uint256"
        }
      ],
      "stateMutability": "view",
      "type": "function"
    },
    {
      "inputs": [
        {
          "internalType": "address",
          "name": "from",
          "type": "address"
        },
        {
          "internalType": "address",
          "name": "to",
          "type": "address"
        },
        {
          "internalType": "uint256",
          "name": "tokenId",
          "type": "uint256"
        }
      ],
      "name": "safeTransferFrom",
      "outputs": [],
      "stateMutability": "nonpayable",
      "type": "function"
    },
    {
      "inputs": [
        {
          "internalType": "address",
          "name": "from",
          "type": "address"
        },
        {
          "internalType": "address",
          "name": "to",
          "type": "address"
        },
        {
          "internalType": "uint256",
          "name": "tokenId",
          "type": "uint256"
        },
        {
          "internalType": "bytes",
          "name": "data",
          "type": "bytes"
        }
      ],
      "name": "safeTransferFrom",
      "outputs": [],
      "stateMutability": "nonpayable",
      "type": "function"
    },
    {
      "inputs": [
        {
          "internalType": "address",
          "name": "operator",
          "type": "address"
        },
        {
          "internalType": "bool",
          "name": "approved",
          "type": "bool"
        }
      ],
      "name": "setApprovalForAll",
      "outputs": [],
      "stateMutability": "nonpayable",
      "type": "function"
    },
    {
      "inputs": [],
      "name": "size",
      "outputs": [
        {
          "internalType": "uint256",
          "name": "",
          "type": "uint256"
        }
      ],
      "stateMutability": "view",
      "type": "function"
    },
    {
      "inputs": [
        {
          "internalType": "bytes4",
          "name": "interfaceId",
          "type": "bytes4"
        }
      ],
      "name": "supportsInterface",
      "outputs": [
        {
          "internalType": "bool",
          "name": "",
          "type": "bool"
        }
      ],
      "stateMutability": "view",
      "type": "function"
    },
    {
      "inputs": [],
      "name": "symbol",
      "outputs": [
        {
          "internalType": "string",
          "name": "",
          "type": "string"
        }
      ],
      "stateMutability": "view",
      "type": "function"
    },
    {
      "inputs": [
        {
          "internalType": "uint256",
          "name": "",
          "type": "uint256"
        }
      ],
      "name": "tokenIdToRandomNumber",
      "outputs": [
        {
          "internalType": "uint256",
          "name": "",
          "type": "uint256"
        }
      ],
      "stateMutability": "view",
      "type": "function"
    },
    {
      "inputs": [
        {
          "internalType": "uint256",
          "name": "tokenId",
          "type": "uint256"
        }
      ],
      "name": "tokenURI",
      "outputs": [
        {
          "internalType": "string",
          "name": "",
          "type": "string"
        }
      ],
      "stateMutability": "view",
      "type": "function"
    },
    {
      "inputs": [
        {
          "internalType": "address",
          "name": "from",
          "type": "address"
        },
        {
          "internalType": "address",
          "name": "to",
          "type": "address"
        },
        {
          "internalType": "uint256",
          "name": "tokenId",
          "type": "uint256"
        }
      ],
      "name": "transferFrom",
      "outputs": [],
      "stateMutability": "nonpayable",
      "type": "function"
    }
  ],
  "transactionHash": "0x6a95c16b2df760bd396134b0e62f355d7a39b726cf38bc6039908b8921faa886",
  "args": [
    "0x5FbDB2315678afecb367f032d93F642f64180aa3",
    "0x79d3d8832d904592c0bf9818b621522c988bb8b0c05cdc3b15aea1b6e8db0c15",
    "1",
    "1500000"
  ],
  "numDeployments": 1,
  "solcInputHash": "cb45b98e78c660a600e5fab5a7f3526d",
  "bytecode": "0x6101206040523480156200001257600080fd5b5060405162004e8f38038062004e8f833981810160405281019062000038919062000620565b836040518060400160405280600c81526020017f52616e646f6d5356474e465400000000000000000000000000000000000000008152506040518060400160405280600c81526020017f72616e646f6d5356474e465400000000000000000000000000000000000000008152508160009081620000b691906200090c565b508060019081620000c891906200090c565b5050508073ffffffffffffffffffffffffffffffffffffffff1660808173ffffffffffffffffffffffffffffffffffffffff1681525050508373ffffffffffffffffffffffffffffffffffffffff1660a08173ffffffffffffffffffffffffffffffffffffffff16815250508260c081815250508167ffffffffffffffff1660e08167ffffffffffffffff16815250508063ffffffff166101008163ffffffff16815250506000600c81905550602860078190555060146008819055506101f460098190555060405180604001604052806040518060400160405280600181526020017f4d0000000000000000000000000000000000000000000000000000000000000081525081526020016040518060400160405280600181526020017f4c00000000000000000000000000000000000000000000000000000000000000815250815250600a9060026200021f929190620003a8565b506040518060c001604052806040518060400160405280600381526020017f726564000000000000000000000000000000000000000000000000000000000081525081526020016040518060400160405280600481526020017f626c75650000000000000000000000000000000000000000000000000000000081525081526020016040518060400160405280600581526020017f677265656e00000000000000000000000000000000000000000000000000000081525081526020016040518060400160405280600681526020017f79656c6c6f77000000000000000000000000000000000000000000000000000081525081526020016040518060400160405280600581526020017f626c61636b00000000000000000000000000000000000000000000000000000081525081526020016040518060400160405280600581526020017f7768697465000000000000000000000000000000000000000000000000000000815250815250600b9060066200039d92919062000408565b5050505050620009f3565b828054828255906000526020600020908101928215620003f5579160200282015b82811115620003f4578251829081620003e391906200090c565b5091602001919060010190620003c9565b5b50905062000404919062000468565b5090565b82805482825590600052602060002090810192821562000455579160200282015b82811115620004545782518290816200044391906200090c565b509160200191906001019062000429565b5b50905062000464919062000468565b5090565b5b808211156200048c576000818162000482919062000490565b5060010162000469565b5090565b5080546200049e90620006fb565b6000825580601f10620004b25750620004d3565b601f016020900490600052602060002090810190620004d29190620004d6565b5b50565b5b80821115620004f1576000816000905550600101620004d7565b5090565b600080fd5b600073ffffffffffffffffffffffffffffffffffffffff82169050919050565b60006200052782620004fa565b9050919050565b62000539816200051a565b81146200054557600080fd5b50565b60008151905062000559816200052e565b92915050565b6000819050919050565b62000574816200055f565b81146200058057600080fd5b50565b600081519050620005948162000569565b92915050565b600067ffffffffffffffff82169050919050565b620005b9816200059a565b8114620005c557600080fd5b50565b600081519050620005d981620005ae565b92915050565b600063ffffffff82169050919050565b620005fa81620005df565b81146200060657600080fd5b50565b6000815190506200061a81620005ef565b92915050565b600080600080608085870312156200063d576200063c620004f5565b5b60006200064d8782880162000548565b9450506020620006608782880162000583565b93505060406200067387828801620005c8565b9250506060620006868782880162000609565b91505092959194509250565b600081519050919050565b7f4e487b7100000000000000000000000000000000000000000000000000000000600052604160045260246000fd5b7f4e487b7100000000000000000000000000000000000000000000000000000000600052602260045260246000fd5b600060028204905060018216806200071457607f821691505b6020821081036200072a5762000729620006cc565b5b50919050565b60008190508160005260206000209050919050565b60006020601f8301049050919050565b600082821b905092915050565b600060088302620007947fffffffffffffffffffffffffffffffffffffffffffffffffffffffffffffffff8262000755565b620007a0868362000755565b95508019841693508086168417925050509392505050565b6000819050919050565b6000819050919050565b6000620007ed620007e7620007e184620007b8565b620007c2565b620007b8565b9050919050565b6000819050919050565b6200080983620007cc565b620008216200081882620007f4565b84845462000762565b825550505050565b600090565b6200083862000829565b62000845818484620007fe565b505050565b5b818110156200086d57620008616000826200082e565b6001810190506200084b565b5050565b601f821115620008bc57620008868162000730565b620008918462000745565b81016020851015620008a1578190505b620008b9620008b08562000745565b8301826200084a565b50505b505050565b600082821c905092915050565b6000620008e160001984600802620008c1565b1980831691505092915050565b6000620008fc8383620008ce565b9150826002028217905092915050565b620009178262000692565b67ffffffffffffffff8111156200093357620009326200069d565b5b6200093f8254620006fb565b6200094c82828562000871565b600060209050601f8311600181146200098457600084156200096f578287015190505b6200097b8582620008ee565b865550620009eb565b601f198416620009948662000730565b60005b82811015620009be5784890151825560018201915060208501945060208101905062000997565b86831015620009de5784890151620009da601f891682620008ce565b8355505b6001600288020188555050505b505050505050565b60805160a05160c05160e0516101005161445062000a3f6000396000610cfc01526000610cd901526000610cb801526000610c7c015260008181610809015261085d01526144506000f3fe608060405234801561001057600080fd5b50600436106101735760003560e01c806370a08231116100de5780639c1cd79511610097578063bd11f69d11610071578063bd11f69d14610470578063c21bf36f146104a0578063c87b56dd146104be578063e985e9c5146104ee57610173565b80639c1cd79514610408578063a22cb46514610438578063b88d4fde1461045457610173565b806370a082311461031e5780638a97ec2a1461034e5780638e2de4d31461036c578063949d225d1461039c578063955968d4146103ba57806395d89b41146103ea57610173565b806323b872dd1161013057806323b872dd1461025e57806342842e0e1461027a57806348e896ab14610296578063624194c7146102b45780636352211e146102d05780636e02007d1461030057610173565b806301ffc9a71461017857806306fdde03146101a85780630750b163146101c6578063081812fc146101f6578063095ea7b3146102265780631fe543e314610242575b600080fd5b610192600480360381019061018d91906128a0565b61051e565b60405161019f91906128e8565b60405180910390f35b6101b0610600565b6040516101bd9190612993565b60405180910390f35b6101e060048036038101906101db91906129eb565b610692565b6040516101ed9190612a27565b60405180910390f35b610210600480360381019061020b91906129eb565b6106aa565b60405161021d9190612a83565b60405180910390f35b610240600480360381019061023b9190612aca565b6106f0565b005b61025c60048036038101906102579190612c52565b610807565b005b61027860048036038101906102739190612cae565b6108c7565b005b610294600480360381019061028f9190612cae565b610927565b005b61029e610947565b6040516102ab9190612a27565b60405180910390f35b6102ce60048036038101906102c991906129eb565b61094d565b005b6102ea60048036038101906102e591906129eb565b610b06565b6040516102f79190612a83565b60405180910390f35b610308610bb7565b6040516103159190612a27565b60405180910390f35b61033860048036038101906103339190612d01565b610bc1565b6040516103459190612a27565b60405180910390f35b610356610c78565b6040516103639190612a27565b60405180910390f35b610386600480360381019061038191906129eb565b610e56565b6040516103939190612a83565b60405180910390f35b6103a4610e89565b6040516103b19190612a27565b60405180910390f35b6103d460048036038101906103cf91906129eb565b610e8f565b6040516103e19190612993565b60405180910390f35b6103f2610f3b565b6040516103ff9190612993565b60405180910390f35b610422600480360381019061041d91906129eb565b610fcd565b60405161042f9190612a27565b60405180910390f35b610452600480360381019061044d9190612d5a565b610fe5565b005b61046e60048036038101906104699190612e4f565b610ffb565b005b61048a600480360381019061048591906129eb565b61105d565b6040516104979190612993565b60405180910390f35b6104a8611109565b6040516104b59190612a27565b60405180910390f35b6104d860048036038101906104d391906129eb565b61110f565b6040516104e59190612993565b60405180910390f35b61050860048036038101906105039190612ed2565b611221565b60405161051591906128e8565b60405180910390f35b60007f80ac58cd000000000000000000000000000000000000000000000000000000007bffffffffffffffffffffffffffffffffffffffffffffffffffffffff1916827bffffffffffffffffffffffffffffffffffffffffffffffffffffffff191614806105e957507f5b5e139f000000000000000000000000000000000000000000000000000000007bffffffffffffffffffffffffffffffffffffffffffffffffffffffff1916827bffffffffffffffffffffffffffffffffffffffffffffffffffffffff1916145b806105f957506105f8826112b5565b5b9050919050565b60606000805461060f90612f41565b80601f016020809104026020016040519081016040528092919081815260200182805461063b90612f41565b80156106885780601f1061065d57610100808354040283529160200191610688565b820191906000526020600020905b81548152906001019060200180831161066b57829003601f168201915b5050505050905090565b600e6020528060005260406000206000915090505481565b60006106b58261131f565b6004600083815260200190815260200160002060009054906101000a900473ffffffffffffffffffffffffffffffffffffffff169050919050565b60006106fb82610b06565b90508073ffffffffffffffffffffffffffffffffffffffff168373ffffffffffffffffffffffffffffffffffffffff160361076b576040517f08c379a000000000000000000000000000000000000000000000000000000000815260040161076290612fe4565b60405180910390fd5b8073ffffffffffffffffffffffffffffffffffffffff1661078a61136a565b73ffffffffffffffffffffffffffffffffffffffff1614806107b957506107b8816107b361136a565b611221565b5b6107f8576040517f08c379a00000000000000000000000000000000000000000000000000000000081526004016107ef90613076565b60405180910390fd5b6108028383611372565b505050565b7f000000000000000000000000000000000000000000000000000000000000000073ffffffffffffffffffffffffffffffffffffffff163373ffffffffffffffffffffffffffffffffffffffff16146108b957337f00000000000000000000000000000000000000000000000000000000000000006040517f1cf993f40000000000000000000000000000000000000000000000000000000081526004016108b0929190613096565b60405180910390fd5b6108c3828261142b565b5050565b6108d86108d261136a565b826114f2565b610917576040517f08c379a000000000000000000000000000000000000000000000000000000000815260040161090e90613131565b60405180910390fd5b610922838383611587565b505050565b61094283838360405180602001604052806000815250610ffb565b505050565b60085481565b60006109588261110f565b51111561099a576040517f08c379a0000000000000000000000000000000000000000000000000000000008152600401610991906131c3565b60405180910390fd5b80600c54116109de576040517f08c379a00000000000000000000000000000000000000000000000000000000081526004016109d59061322f565b60405180910390fd5b6000600f60008381526020019081526020016000205411610a34576040517f08c379a0000000000000000000000000000000000000000000000000000000008152600401610a2b906132c1565b60405180910390fd5b6000600f6000838152602001908152602001600020549050610a8b6040518060400160405280601b81526020017f52616e646f6d206e756d6265722067656e6572617465643a2025730000000000815250826117ed565b6000610a9682611889565b90506000610aa38261198b565b90506000610ab082611a1e565b9050610abc8582611ab4565b80604051610aca919061331d565b6040518091039020857f15a6487b7915a7116ce2a61d43b17e9b47484b1931f3c79f2f3d139b307b389360405160405180910390a35050505050565b6000806002600084815260200190815260200160002060009054906101000a900473ffffffffffffffffffffffffffffffffffffffff169050600073ffffffffffffffffffffffffffffffffffffffff168173ffffffffffffffffffffffffffffffffffffffff1603610bae576040517f08c379a0000000000000000000000000000000000000000000000000000000008152600401610ba590613380565b60405180910390fd5b80915050919050565b6000600c54905090565b60008073ffffffffffffffffffffffffffffffffffffffff168273ffffffffffffffffffffffffffffffffffffffff1603610c31576040517f08c379a0000000000000000000000000000000000000000000000000000000008152600401610c2890613412565b60405180910390fd5b600360008373ffffffffffffffffffffffffffffffffffffffff1673ffffffffffffffffffffffffffffffffffffffff168152602001908152602001600020549050919050565b60007f000000000000000000000000000000000000000000000000000000000000000073ffffffffffffffffffffffffffffffffffffffff16635d3b1d307f00000000000000000000000000000000000000000000000000000000000000007f000000000000000000000000000000000000000000000000000000000000000060037f000000000000000000000000000000000000000000000000000000000000000060016040518663ffffffff1660e01b8152600401610d3d9594939291906134aa565b6020604051808303816000875af1158015610d5c573d6000803e3d6000fd5b505050506040513d601f19601f82011682018060405250810190610d809190613512565b905033600d600083815260200190815260200160002060006101000a81548173ffffffffffffffffffffffffffffffffffffffff021916908373ffffffffffffffffffffffffffffffffffffffff1602179055506000600c54905080600e6000848152602001908152602001600020819055506001600c6000828254610e06919061356e565b925050819055503373ffffffffffffffffffffffffffffffffffffffff1681837fda4a069893f9efe109727074bcfb4202d8a3afe04e86f22aa953ca02fc42ea9260405160405180910390a45090565b600d6020528060005260406000206000915054906101000a900473ffffffffffffffffffffffffffffffffffffffff1681565b60095481565b600a8181548110610e9f57600080fd5b906000526020600020016000915090508054610eba90612f41565b80601f0160208091040260200160405190810160405280929190818152602001828054610ee690612f41565b8015610f335780601f10610f0857610100808354040283529160200191610f33565b820191906000526020600020905b815481529060010190602001808311610f1657829003601f168201915b505050505081565b606060018054610f4a90612f41565b80601f0160208091040260200160405190810160405280929190818152602001828054610f7690612f41565b8015610fc35780601f10610f9857610100808354040283529160200191610fc3565b820191906000526020600020905b815481529060010190602001808311610fa657829003601f168201915b5050505050905090565b600f6020528060005260406000206000915090505481565b610ff7610ff061136a565b8383611b21565b5050565b61100c61100661136a565b836114f2565b61104b576040517f08c379a000000000000000000000000000000000000000000000000000000000815260040161104290613131565b60405180910390fd5b61105784848484611c8d565b50505050565b600b818154811061106d57600080fd5b90600052602060002001600091509050805461108890612f41565b80601f01602080910402602001604051908101604052809291908181526020018280546110b490612f41565b80156111015780601f106110d657610100808354040283529160200191611101565b820191906000526020600020905b8154815290600101906020018083116110e457829003601f168201915b505050505081565b60075481565b606061111a8261131f565b600060066000848152602001908152602001600020805461113a90612f41565b80601f016020809104026020016040519081016040528092919081815260200182805461116690612f41565b80156111b35780601f10611188576101008083540402835291602001916111b3565b820191906000526020600020905b81548152906001019060200180831161119657829003601f168201915b5050505050905060006111c4611ce9565b905060008151036111d957819250505061121c565b60008251111561120e5780826040516020016111f69291906135a2565b6040516020818303038152906040529250505061121c565b61121784611d00565b925050505b919050565b6000600560008473ffffffffffffffffffffffffffffffffffffffff1673ffffffffffffffffffffffffffffffffffffffff16815260200190815260200160002060008373ffffffffffffffffffffffffffffffffffffffff1673ffffffffffffffffffffffffffffffffffffffff16815260200190815260200160002060009054906101000a900460ff16905092915050565b60007f01ffc9a7000000000000000000000000000000000000000000000000000000007bffffffffffffffffffffffffffffffffffffffffffffffffffffffff1916827bffffffffffffffffffffffffffffffffffffffffffffffffffffffff1916149050919050565b61132881611d68565b611367576040517f08c379a000000000000000000000000000000000000000000000000000000000815260040161135e90613380565b60405180910390fd5b50565b600033905090565b816004600083815260200190815260200160002060006101000a81548173ffffffffffffffffffffffffffffffffffffffff021916908373ffffffffffffffffffffffffffffffffffffffff160217905550808273ffffffffffffffffffffffffffffffffffffffff166113e583610b06565b73ffffffffffffffffffffffffffffffffffffffff167f8c5be1e5ebec7d5bd14f71427d1e84f3dd0314c0f7b2291e5b200ac8c7c3b92560405160405180910390a45050565b600081600081518110611441576114406135c6565b5b602002602001015190506000600d600085815260200190815260200160002060009054906101000a900473ffffffffffffffffffffffffffffffffffffffff1690506000600e60008681526020019081526020016000205490506114a58282611dd4565b82600f60008381526020019081526020016000208190555082817faad5362ce528ed941024b95d4c18dfd49b8503e1f586a5c353631d98c2af41b760405160405180910390a35050505050565b6000806114fe83610b06565b90508073ffffffffffffffffffffffffffffffffffffffff168473ffffffffffffffffffffffffffffffffffffffff161480611540575061153f8185611221565b5b8061157e57508373ffffffffffffffffffffffffffffffffffffffff16611566846106aa565b73ffffffffffffffffffffffffffffffffffffffff16145b91505092915050565b8273ffffffffffffffffffffffffffffffffffffffff166115a782610b06565b73ffffffffffffffffffffffffffffffffffffffff16146115fd576040517f08c379a00000000000000000000000000000000000000000000000000000000081526004016115f490613667565b60405180910390fd5b600073ffffffffffffffffffffffffffffffffffffffff168273ffffffffffffffffffffffffffffffffffffffff160361166c576040517f08c379a0000000000000000000000000000000000000000000000000000000008152600401611663906136f9565b60405180910390fd5b611677838383611df2565b611682600082611372565b6001600360008573ffffffffffffffffffffffffffffffffffffffff1673ffffffffffffffffffffffffffffffffffffffff16815260200190815260200160002060008282546116d29190613719565b925050819055506001600360008473ffffffffffffffffffffffffffffffffffffffff1673ffffffffffffffffffffffffffffffffffffffff1681526020019081526020016000206000828254611729919061356e565b92505081905550816002600083815260200190815260200160002060006101000a81548173ffffffffffffffffffffffffffffffffffffffff021916908373ffffffffffffffffffffffffffffffffffffffff160217905550808273ffffffffffffffffffffffffffffffffffffffff168473ffffffffffffffffffffffffffffffffffffffff167fddf252ad1be2c89b69c2b068fc378daa952ba7f163c4a11628f55a4df523b3ef60405160405180910390a46117e8838383611df7565b505050565b611885828260405160240161180392919061374d565b6040516020818303038152906040527fb60e72cc000000000000000000000000000000000000000000000000000000007bffffffffffffffffffffffffffffffffffffffffffffffffffffffff19166020820180517bffffffffffffffffffffffffffffffffffffffffffffffffffffffff8381831617835250505050611dfc565b5050565b6060600060016007548461189d91906137ac565b6118a7919061356e565b90506118b4600954611e25565b6118bf600954611e25565b6040516020016118d09291906138e7565b604051602081830303815290604052915060005b81811015611962576000848260405160200161190192919061392c565b6040516020818303038152906040528051906020012060001c9050600061192782611f85565b9050848160405160200161193c9291906135a2565b60405160208183030381529060405294505050808061195a90613955565b9150506118e4565b508160405160200161197491906139e9565b604051602081830303815290604052915050919050565b606060006040518060400160405280601a81526020017f646174613a696d6167652f7376672b786d6c3b6261736536342c000000000000815250905060006119f1846040516020016119dd919061331d565b604051602081830303815290604052612151565b90508181604051602001611a069291906135a2565b60405160208183030381529060405292505050919050565b606060006040518060400160405280601d81526020017f646174613a6170706c69636174696f6e2f6a736f6e3b6261736536342c000000815250905080611a8c611a66610600565b85604051602001611a78929190613bd3565b604051602081830303815290604052612151565b604051602001611a9d9291906135a2565b604051602081830303815290604052915050919050565b611abd82611d68565b611afc576040517f08c379a0000000000000000000000000000000000000000000000000000000008152600401611af390613ca0565b60405180910390fd5b80600660008481526020019081526020016000209081611b1c9190613e6c565b505050565b8173ffffffffffffffffffffffffffffffffffffffff168373ffffffffffffffffffffffffffffffffffffffff1603611b8f576040517f08c379a0000000000000000000000000000000000000000000000000000000008152600401611b8690613f8a565b60405180910390fd5b80600560008573ffffffffffffffffffffffffffffffffffffffff1673ffffffffffffffffffffffffffffffffffffffff16815260200190815260200160002060008473ffffffffffffffffffffffffffffffffffffffff1673ffffffffffffffffffffffffffffffffffffffff16815260200190815260200160002060006101000a81548160ff0219169083151502179055508173ffffffffffffffffffffffffffffffffffffffff168373ffffffffffffffffffffffffffffffffffffffff167f17307eab39ab6107e8899845ad3d59bd9653f200f220920489ca2b5937696c3183604051611c8091906128e8565b60405180910390a3505050565b611c98848484611587565b611ca4848484846122c9565b611ce3576040517f08c379a0000000000000000000000000000000000000000000000000000000008152600401611cda9061401c565b60405180910390fd5b50505050565b606060405180602001604052806000815250905090565b6060611d0b8261131f565b6000611d15611ce9565b90506000815111611d355760405180602001604052806000815250611d60565b80611d3f84611e25565b604051602001611d509291906135a2565b6040516020818303038152906040525b915050919050565b60008073ffffffffffffffffffffffffffffffffffffffff166002600084815260200190815260200160002060009054906101000a900473ffffffffffffffffffffffffffffffffffffffff1673ffffffffffffffffffffffffffffffffffffffff1614159050919050565b611dee828260405180602001604052806000815250612450565b5050565b505050565b505050565b60008151905060006a636f6e736f6c652e6c6f679050602083016000808483855afa5050505050565b606060008203611e6c576040518060400160405280600181526020017f30000000000000000000000000000000000000000000000000000000000000008152509050611f80565b600082905060005b60008214611e9e578080611e8790613955565b915050600a82611e97919061403c565b9150611e74565b60008167ffffffffffffffff811115611eba57611eb9612b0f565b5b6040519080825280601f01601f191660200182016040528015611eec5781602001600182028036833780820191505090505b5090505b60008514611f7957600182611f059190613719565b9150600a85611f1491906137ac565b6030611f20919061356e565b60f81b818381518110611f3657611f356135c6565b5b60200101907effffffffffffffffffffffffffffffffffffffffffffffffffffffffffffff1916908160001a905350600a85611f72919061403c565b9450611ef0565b8093505050505b919050565b60606000600160085484611f9991906137ac565b611fa3919061356e565b90506040518060400160405280600981526020017f3c7061746820643d270000000000000000000000000000000000000000000000815250915060005b8181101561206b5760008482600954611ff9919061356e565b60405160200161200a92919061392c565b6040516020818303038152906040528051906020012060001c90506000612030826124ab565b905084816040516020016120459291906135a2565b60405160208183030381529060405294505050808061206390613955565b915050611fe0565b506000600b80805490508561208091906137ac565b81548110612091576120906135c6565b5b9060005260206000200180546120a690612f41565b80601f01602080910402602001604051908101604052809291908181526020018280546120d290612f41565b801561211f5780601f106120f45761010080835404028352916020019161211f565b820191906000526020600020905b81548152906001019060200180831161210257829003601f168201915b505050505090508281604051602001612139929190614105565b60405160208183030381529060405292505050919050565b60606000825103612173576040518060200160405280600081525090506122c4565b60006040518060600160405280604081526020016143db60409139905060006003600285516121a2919061356e565b6121ac919061403c565b60046121b8919061413f565b905060006020826121c9919061356e565b67ffffffffffffffff8111156121e2576121e1612b0f565b5b6040519080825280601f01601f1916602001820160405280156122145781602001600182028036833780820191505090505b509050818152600183018586518101602084015b81831015612283576003830192508251603f8160121c168501518253600182019150603f81600c1c168501518253600182019150603f8160061c168501518253600182019150603f8116850151825360018201915050612228565b60038951066001811461229d57600281146122ad576122b8565b613d3d60f01b60028303526122b8565b603d60f81b60018303525b50505050508093505050505b919050565b60006122ea8473ffffffffffffffffffffffffffffffffffffffff16612638565b15612443578373ffffffffffffffffffffffffffffffffffffffff1663150b7a0261231361136a565b8786866040518563ffffffff1660e01b815260040161233594939291906141d6565b6020604051808303816000875af192505050801561237157506040513d601f19601f8201168201806040525081019061236e9190614237565b60015b6123f3573d80600081146123a1576040519150601f19603f3d011682016040523d82523d6000602084013e6123a6565b606091505b5060008151036123eb576040517f08c379a00000000000000000000000000000000000000000000000000000000081526004016123e29061401c565b60405180910390fd5b805181602001fd5b63150b7a0260e01b7bffffffffffffffffffffffffffffffffffffffffffffffffffffffff1916817bffffffffffffffffffffffffffffffffffffffffffffffffffffffff191614915050612448565b600190505b949350505050565b61245a838361265b565b61246760008484846122c9565b6124a6576040517f08c379a000000000000000000000000000000000000000000000000000000000815260040161249d9061401c565b60405180910390fd5b505050565b6060600a8080549050836124bf91906137ac565b815481106124d0576124cf6135c6565b5b9060005260206000200180546124e590612f41565b80601f016020809104026020016040519081016040528092919081815260200182805461251190612f41565b801561255e5780601f106125335761010080835404028352916020019161255e565b820191906000526020600020905b81548152906001019060200180831161254157829003601f168201915b50505050509050600060095483600260095461257a919061413f565b60405160200161258b92919061392c565b6040516020818303038152906040528051906020012060001c6125ae91906137ac565b905060006009548460026009546125c5919061356e565b6040516020016125d692919061392c565b6040516020818303038152906040528051906020012060001c6125f991906137ac565b90508261260583611e25565b61260e83611e25565b604051602001612620939291906142b0565b60405160208183030381529060405292505050919050565b6000808273ffffffffffffffffffffffffffffffffffffffff163b119050919050565b600073ffffffffffffffffffffffffffffffffffffffff168273ffffffffffffffffffffffffffffffffffffffff16036126ca576040517f08c379a00000000000000000000000000000000000000000000000000000000081526004016126c19061434e565b60405180910390fd5b6126d381611d68565b15612713576040517f08c379a000000000000000000000000000000000000000000000000000000000815260040161270a906143ba565b60405180910390fd5b61271f60008383611df2565b6001600360008473ffffffffffffffffffffffffffffffffffffffff1673ffffffffffffffffffffffffffffffffffffffff168152602001908152602001600020600082825461276f919061356e565b92505081905550816002600083815260200190815260200160002060006101000a81548173ffffffffffffffffffffffffffffffffffffffff021916908373ffffffffffffffffffffffffffffffffffffffff160217905550808273ffffffffffffffffffffffffffffffffffffffff16600073ffffffffffffffffffffffffffffffffffffffff167fddf252ad1be2c89b69c2b068fc378daa952ba7f163c4a11628f55a4df523b3ef60405160405180910390a461283060008383611df7565b5050565b6000604051905090565b600080fd5b600080fd5b60007fffffffff0000000000000000000000000000000000000000000000000000000082169050919050565b61287d81612848565b811461288857600080fd5b50565b60008135905061289a81612874565b92915050565b6000602082840312156128b6576128b561283e565b5b60006128c48482850161288b565b91505092915050565b60008115159050919050565b6128e2816128cd565b82525050565b60006020820190506128fd60008301846128d9565b92915050565b600081519050919050565b600082825260208201905092915050565b60005b8381101561293d578082015181840152602081019050612922565b60008484015250505050565b6000601f19601f8301169050919050565b600061296582612903565b61296f818561290e565b935061297f81856020860161291f565b61298881612949565b840191505092915050565b600060208201905081810360008301526129ad818461295a565b905092915050565b6000819050919050565b6129c8816129b5565b81146129d357600080fd5b50565b6000813590506129e5816129bf565b92915050565b600060208284031215612a0157612a0061283e565b5b6000612a0f848285016129d6565b91505092915050565b612a21816129b5565b82525050565b6000602082019050612a3c6000830184612a18565b92915050565b600073ffffffffffffffffffffffffffffffffffffffff82169050919050565b6000612a6d82612a42565b9050919050565b612a7d81612a62565b82525050565b6000602082019050612a986000830184612a74565b92915050565b612aa781612a62565b8114612ab257600080fd5b50565b600081359050612ac481612a9e565b92915050565b60008060408385031215612ae157612ae061283e565b5b6000612aef85828601612ab5565b9250506020612b00858286016129d6565b9150509250929050565b600080fd5b7f4e487b7100000000000000000000000000000000000000000000000000000000600052604160045260246000fd5b612b4782612949565b810181811067ffffffffffffffff82111715612b6657612b65612b0f565b5b80604052505050565b6000612b79612834565b9050612b858282612b3e565b919050565b600067ffffffffffffffff821115612ba557612ba4612b0f565b5b602082029050602081019050919050565b600080fd5b6000612bce612bc984612b8a565b612b6f565b90508083825260208201905060208402830185811115612bf157612bf0612bb6565b5b835b81811015612c1a5780612c0688826129d6565b845260208401935050602081019050612bf3565b5050509392505050565b600082601f830112612c3957612c38612b0a565b5b8135612c49848260208601612bbb565b91505092915050565b60008060408385031215612c6957612c6861283e565b5b6000612c77858286016129d6565b925050602083013567ffffffffffffffff811115612c9857612c97612843565b5b612ca485828601612c24565b9150509250929050565b600080600060608486031215612cc757612cc661283e565b5b6000612cd586828701612ab5565b9350506020612ce686828701612ab5565b9250506040612cf7868287016129d6565b9150509250925092565b600060208284031215612d1757612d1661283e565b5b6000612d2584828501612ab5565b91505092915050565b612d37816128cd565b8114612d4257600080fd5b50565b600081359050612d5481612d2e565b92915050565b60008060408385031215612d7157612d7061283e565b5b6000612d7f85828601612ab5565b9250506020612d9085828601612d45565b9150509250929050565b600080fd5b600067ffffffffffffffff821115612dba57612db9612b0f565b5b612dc382612949565b9050602081019050919050565b82818337600083830152505050565b6000612df2612ded84612d9f565b612b6f565b905082815260208101848484011115612e0e57612e0d612d9a565b5b612e19848285612dd0565b509392505050565b600082601f830112612e3657612e35612b0a565b5b8135612e46848260208601612ddf565b91505092915050565b60008060008060808587031215612e6957612e6861283e565b5b6000612e7787828801612ab5565b9450506020612e8887828801612ab5565b9350506040612e99878288016129d6565b925050606085013567ffffffffffffffff811115612eba57612eb9612843565b5b612ec687828801612e21565b91505092959194509250565b60008060408385031215612ee957612ee861283e565b5b6000612ef785828601612ab5565b9250506020612f0885828601612ab5565b9150509250929050565b7f4e487b7100000000000000000000000000000000000000000000000000000000600052602260045260246000fd5b60006002820490506001821680612f5957607f821691505b602082108103612f6c57612f6b612f12565b5b50919050565b7f4552433732313a20617070726f76616c20746f2063757272656e74206f776e6560008201527f7200000000000000000000000000000000000000000000000000000000000000602082015250565b6000612fce60218361290e565b9150612fd982612f72565b604082019050919050565b60006020820190508181036000830152612ffd81612fc1565b9050919050565b7f4552433732313a20617070726f76652063616c6c6572206973206e6f7420746f60008201527f6b656e206f776e6572206e6f7220617070726f76656420666f7220616c6c0000602082015250565b6000613060603e8361290e565b915061306b82613004565b604082019050919050565b6000602082019050818103600083015261308f81613053565b9050919050565b60006040820190506130ab6000830185612a74565b6130b86020830184612a74565b9392505050565b7f4552433732313a2063616c6c6572206973206e6f7420746f6b656e206f776e6560008201527f72206e6f7220617070726f766564000000000000000000000000000000000000602082015250565b600061311b602e8361290e565b9150613126826130bf565b604082019050919050565b6000602082019050818103600083015261314a8161310e565b9050919050565b7f546f6b656e2055524920697320616c726561647920616c6c207365742c20636160008201527f6e6e6f74206368616e67652069742e0000000000000000000000000000000000602082015250565b60006131ad602f8361290e565b91506131b882613151565b604082019050919050565b600060208201905081810360008301526131dc816131a0565b9050919050565b7f54686520746f6b656e20496420686173206e6f74206d696e746564207965742e600082015250565b600061321960208361290e565b9150613224826131e3565b602082019050919050565b600060208201905081810360008301526132488161320c565b9050919050565b7f4e6f2072616e646f6d206e756d62657220666f756e64206173736f636974656460008201527f20776974682074686520666f6c6c6f77696e6720746f6b656e20496400000000602082015250565b60006132ab603c8361290e565b91506132b68261324f565b604082019050919050565b600060208201905081810360008301526132da8161329e565b9050919050565b600081905092915050565b60006132f782612903565b61330181856132e1565b935061331181856020860161291f565b80840191505092915050565b600061332982846132ec565b915081905092915050565b7f4552433732313a20696e76616c696420746f6b656e2049440000000000000000600082015250565b600061336a60188361290e565b915061337582613334565b602082019050919050565b600060208201905081810360008301526133998161335d565b9050919050565b7f4552433732313a2061646472657373207a65726f206973206e6f74206120766160008201527f6c6964206f776e65720000000000000000000000000000000000000000000000602082015250565b60006133fc60298361290e565b9150613407826133a0565b604082019050919050565b6000602082019050818103600083015261342b816133ef565b9050919050565b6000819050919050565b61344581613432565b82525050565b600067ffffffffffffffff82169050919050565b6134688161344b565b82525050565b600061ffff82169050919050565b6134858161346e565b82525050565b600063ffffffff82169050919050565b6134a48161348b565b82525050565b600060a0820190506134bf600083018861343c565b6134cc602083018761345f565b6134d9604083018661347c565b6134e6606083018561349b565b6134f3608083018461349b565b9695505050505050565b60008151905061350c816129bf565b92915050565b6000602082840312156135285761352761283e565b5b6000613536848285016134fd565b91505092915050565b7f4e487b7100000000000000000000000000000000000000000000000000000000600052601160045260246000fd5b6000613579826129b5565b9150613584836129b5565b925082820190508082111561359c5761359b61353f565b5b92915050565b60006135ae82856132ec565b91506135ba82846132ec565b91508190509392505050565b7f4e487b7100000000000000000000000000000000000000000000000000000000600052603260045260246000fd5b7f4552433732313a207472616e736665722066726f6d20696e636f72726563742060008201527f6f776e6572000000000000000000000000000000000000000000000000000000602082015250565b600061365160258361290e565b915061365c826135f5565b604082019050919050565b6000602082019050818103600083015261368081613644565b9050919050565b7f4552433732313a207472616e7366657220746f20746865207a65726f2061646460008201527f7265737300000000000000000000000000000000000000000000000000000000602082015250565b60006136e360248361290e565b91506136ee82613687565b604082019050919050565b60006020820190508181036000830152613712816136d6565b9050919050565b6000613724826129b5565b915061372f836129b5565b92508282039050818111156137475761374661353f565b5b92915050565b60006040820190508181036000830152613767818561295a565b90506137766020830184612a18565b9392505050565b7f4e487b7100000000000000000000000000000000000000000000000000000000600052601260045260246000fd5b60006137b7826129b5565b91506137c2836129b5565b9250826137d2576137d161377d565b5b828206905092915050565b7f3c73766720786d6c6e733d27687474703a2f2f7777772e77332e6f72672f323060008201527f30302f73766727206865696768743d2700000000000000000000000000000000602082015250565b60006138396030836132e1565b9150613844826137dd565b603082019050919050565b7f272077696474683d270000000000000000000000000000000000000000000000600082015250565b60006138856009836132e1565b91506138908261384f565b600982019050919050565b7f273e000000000000000000000000000000000000000000000000000000000000600082015250565b60006138d16002836132e1565b91506138dc8261389b565b600282019050919050565b60006138f28261382c565b91506138fe82856132ec565b915061390982613878565b915061391582846132ec565b9150613920826138c4565b91508190509392505050565b60006040820190506139416000830185612a18565b61394e6020830184612a18565b9392505050565b6000613960826129b5565b91507fffffffffffffffffffffffffffffffffffffffffffffffffffffffffffffffff82036139925761399161353f565b5b600182019050919050565b7f203c2f7376673e00000000000000000000000000000000000000000000000000600082015250565b60006139d36007836132e1565b91506139de8261399d565b600782019050919050565b60006139f582846132ec565b9150613a00826139c6565b915081905092915050565b7f7b226e616d65223a220000000000000000000000000000000000000000000000600082015250565b6000613a416009836132e1565b9150613a4c82613a0b565b600982019050919050565b7f222c226465736372697074696f6e223a22412066756c6c206f6e20636861696e60008201527f2067656e6572617465642072616e646f6d20535647204e465422000000000000602082015250565b6000613ab3603a836132e1565b9150613abe82613a57565b603a82019050919050565b7f2261747472696275746573223a5b7b2272616e646f6d6e657373223a2231303060008201527f25222c22617765736f6d656e657373223a2231303025227d5d00000000000000602082015250565b6000613b256039836132e1565b9150613b3082613ac9565b603982019050919050565b7f22696d616765223a220000000000000000000000000000000000000000000000600082015250565b6000613b716009836132e1565b9150613b7c82613b3b565b600982019050919050565b7f227d000000000000000000000000000000000000000000000000000000000000600082015250565b6000613bbd6002836132e1565b9150613bc882613b87565b600282019050919050565b6000613bde82613a34565b9150613bea82856132ec565b9150613bf582613aa6565b9150613c0082613b18565b9150613c0b82613b64565b9150613c1782846132ec565b9150613c2282613bb0565b91508190509392505050565b7f45524337323155524953746f726167653a2055524920736574206f66206e6f6e60008201527f6578697374656e7420746f6b656e000000000000000000000000000000000000602082015250565b6000613c8a602e8361290e565b9150613c9582613c2e565b604082019050919050565b60006020820190508181036000830152613cb981613c7d565b9050919050565b60008190508160005260206000209050919050565b60006020601f8301049050919050565b600082821b905092915050565b600060088302613d227fffffffffffffffffffffffffffffffffffffffffffffffffffffffffffffffff82613ce5565b613d2c8683613ce5565b95508019841693508086168417925050509392505050565b6000819050919050565b6000613d69613d64613d5f846129b5565b613d44565b6129b5565b9050919050565b6000819050919050565b613d8383613d4e565b613d97613d8f82613d70565b848454613cf2565b825550505050565b600090565b613dac613d9f565b613db7818484613d7a565b505050565b5b81811015613ddb57613dd0600082613da4565b600181019050613dbd565b5050565b601f821115613e2057613df181613cc0565b613dfa84613cd5565b81016020851015613e09578190505b613e1d613e1585613cd5565b830182613dbc565b50505b505050565b600082821c905092915050565b6000613e4360001984600802613e25565b1980831691505092915050565b6000613e5c8383613e32565b9150826002028217905092915050565b613e7582612903565b67ffffffffffffffff811115613e8e57613e8d612b0f565b5b613e988254612f41565b613ea3828285613ddf565b600060209050601f831160018114613ed65760008415613ec4578287015190505b613ece8582613e50565b865550613f36565b601f198416613ee486613cc0565b60005b82811015613f0c57848901518255600182019150602085019450602081019050613ee7565b86831015613f295784890151613f25601f891682613e32565b8355505b6001600288020188555050505b505050505050565b7f4552433732313a20617070726f766520746f2063616c6c657200000000000000600082015250565b6000613f7460198361290e565b9150613f7f82613f3e565b602082019050919050565b60006020820190508181036000830152613fa381613f67565b9050919050565b7f4552433732313a207472616e7366657220746f206e6f6e20455243373231526560008201527f63656976657220696d706c656d656e7465720000000000000000000000000000602082015250565b600061400660328361290e565b915061401182613faa565b604082019050919050565b6000602082019050818103600083015261403581613ff9565b9050919050565b6000614047826129b5565b9150614052836129b5565b9250826140625761406161377d565b5b828204905092915050565b7f272066696c6c3d277472616e73706172656e7427207374726f6b653d27000000600082015250565b60006140a3601d836132e1565b91506140ae8261406d565b601d82019050919050565b7f27202f3e00000000000000000000000000000000000000000000000000000000600082015250565b60006140ef6004836132e1565b91506140fa826140b9565b600482019050919050565b600061411182856132ec565b915061411c82614096565b915061412882846132ec565b9150614133826140e2565b91508190509392505050565b600061414a826129b5565b9150614155836129b5565b9250828202614163816129b5565b9150828204841483151761417a5761417961353f565b5b5092915050565b600081519050919050565b600082825260208201905092915050565b60006141a882614181565b6141b2818561418c565b93506141c281856020860161291f565b6141cb81612949565b840191505092915050565b60006080820190506141eb6000830187612a74565b6141f86020830186612a74565b6142056040830185612a18565b8181036060830152614217818461419d565b905095945050505050565b60008151905061423181612874565b92915050565b60006020828403121561424d5761424c61283e565b5b600061425b84828501614222565b91505092915050565b7f2000000000000000000000000000000000000000000000000000000000000000600082015250565b600061429a6001836132e1565b91506142a582614264565b600182019050919050565b60006142bc82866132ec565b91506142c78261428d565b91506142d382856132ec565b91506142de8261428d565b91506142ea82846132ec565b91506142f58261428d565b9150819050949350505050565b7f4552433732313a206d696e7420746f20746865207a65726f2061646472657373600082015250565b600061433860208361290e565b915061434382614302565b602082019050919050565b600060208201905081810360008301526143678161432b565b9050919050565b7f4552433732313a20746f6b656e20616c7265616479206d696e74656400000000600082015250565b60006143a4601c8361290e565b91506143af8261436e565b602082019050919050565b600060208201905081810360008301526143d381614397565b905091905056fe4142434445464748494a4b4c4d4e4f505152535455565758595a6162636465666768696a6b6c6d6e6f707172737475767778797a303132333435363738392b2fa2646970667358221220b7c6b683e1c30aa54ac9502b92e43f20773c2b369f8607d0bf4984d80859e3ba64736f6c63430008110033",
  "devdoc": {
    "kind": "dev",
    "methods": {
      "approve(address,uint256)": {
        "details": "See {IERC721-approve}."
      },
      "balanceOf(address)": {
        "details": "See {IERC721-balanceOf}."
      },
      "getApproved(uint256)": {
        "details": "See {IERC721-getApproved}."
      },
      "isApprovedForAll(address,address)": {
        "details": "See {IERC721-isApprovedForAll}."
      },
      "name()": {
        "details": "See {IERC721Metadata-name}."
      },
      "ownerOf(uint256)": {
        "details": "See {IERC721-ownerOf}."
      },
      "safeTransferFrom(address,address,uint256)": {
        "details": "See {IERC721-safeTransferFrom}."
      },
      "safeTransferFrom(address,address,uint256,bytes)": {
        "details": "See {IERC721-safeTransferFrom}."
      },
      "setApprovalForAll(address,bool)": {
        "details": "See {IERC721-setApprovalForAll}."
      },
      "supportsInterface(bytes4)": {
        "details": "See {IERC165-supportsInterface}."
      },
      "symbol()": {
        "details": "See {IERC721Metadata-symbol}."
      },
      "tokenURI(uint256)": {
        "details": "See {IERC721Metadata-tokenURI}."
      },
      "transferFrom(address,address,uint256)": {
        "details": "See {IERC721-transferFrom}."
      }
    },
    "version": 1
  },
  "userdoc": {
    "kind": "user",
    "methods": {},
    "version": 1
  },
  "storageLayout": {
    "storage": [
      {
        "astId": 179,
        "contract": "contracts/RandomNFT.sol:RandomSVGNFT",
        "label": "_name",
        "offset": 0,
        "slot": "0",
        "type": "t_string_storage"
      },
      {
        "astId": 181,
        "contract": "contracts/RandomNFT.sol:RandomSVGNFT",
        "label": "_symbol",
        "offset": 0,
        "slot": "1",
        "type": "t_string_storage"
      },
      {
        "astId": 185,
        "contract": "contracts/RandomNFT.sol:RandomSVGNFT",
        "label": "_owners",
        "offset": 0,
        "slot": "2",
        "type": "t_mapping(t_uint256,t_address)"
      },
      {
        "astId": 189,
        "contract": "contracts/RandomNFT.sol:RandomSVGNFT",
        "label": "_balances",
        "offset": 0,
        "slot": "3",
        "type": "t_mapping(t_address,t_uint256)"
      },
      {
        "astId": 193,
        "contract": "contracts/RandomNFT.sol:RandomSVGNFT",
        "label": "_tokenApprovals",
        "offset": 0,
        "slot": "4",
        "type": "t_mapping(t_uint256,t_address)"
      },
      {
        "astId": 199,
        "contract": "contracts/RandomNFT.sol:RandomSVGNFT",
        "label": "_operatorApprovals",
        "offset": 0,
        "slot": "5",
        "type": "t_mapping(t_address,t_mapping(t_address,t_bool))"
      },
      {
        "astId": 1167,
        "contract": "contracts/RandomNFT.sol:RandomSVGNFT",
        "label": "_tokenURIs",
        "offset": 0,
        "slot": "6",
        "type": "t_mapping(t_uint256,t_string_storage)"
      },
      {
        "astId": 2034,
        "contract": "contracts/RandomNFT.sol:RandomSVGNFT",
        "label": "maxNumberOfPaths",
        "offset": 0,
        "slot": "7",
        "type": "t_uint256"
      },
      {
        "astId": 2036,
        "contract": "contracts/RandomNFT.sol:RandomSVGNFT",
        "label": "maxNumberOfPathCommands",
        "offset": 0,
        "slot": "8",
        "type": "t_uint256"
      },
      {
        "astId": 2038,
        "contract": "contracts/RandomNFT.sol:RandomSVGNFT",
        "label": "size",
        "offset": 0,
        "slot": "9",
        "type": "t_uint256"
      },
      {
        "astId": 2041,
        "contract": "contracts/RandomNFT.sol:RandomSVGNFT",
        "label": "pathCommands",
        "offset": 0,
        "slot": "10",
        "type": "t_array(t_string_storage)dyn_storage"
      },
      {
        "astId": 2044,
        "contract": "contracts/RandomNFT.sol:RandomSVGNFT",
        "label": "colors",
        "offset": 0,
        "slot": "11",
        "type": "t_array(t_string_storage)dyn_storage"
      },
      {
        "astId": 2061,
        "contract": "contracts/RandomNFT.sol:RandomSVGNFT",
        "label": "tokenCounter",
        "offset": 0,
        "slot": "12",
        "type": "t_uint256"
      },
      {
        "astId": 2065,
        "contract": "contracts/RandomNFT.sol:RandomSVGNFT",
        "label": "requestIdToSender",
        "offset": 0,
        "slot": "13",
        "type": "t_mapping(t_uint256,t_address)"
      },
      {
        "astId": 2069,
        "contract": "contracts/RandomNFT.sol:RandomSVGNFT",
        "label": "requestIdToTokenId",
        "offset": 0,
        "slot": "14",
        "type": "t_mapping(t_uint256,t_uint256)"
      },
      {
        "astId": 2073,
        "contract": "contracts/RandomNFT.sol:RandomSVGNFT",
        "label": "tokenIdToRandomNumber",
        "offset": 0,
        "slot": "15",
        "type": "t_mapping(t_uint256,t_uint256)"
      }
    ],
    "types": {
      "t_address": {
        "encoding": "inplace",
        "label": "address",
        "numberOfBytes": "20"
      },
      "t_array(t_string_storage)dyn_storage": {
        "base": "t_string_storage",
        "encoding": "dynamic_array",
        "label": "string[]",
        "numberOfBytes": "32"
      },
      "t_bool": {
        "encoding": "inplace",
        "label": "bool",
        "numberOfBytes": "1"
      },
      "t_mapping(t_address,t_bool)": {
        "encoding": "mapping",
        "key": "t_address",
        "label": "mapping(address => bool)",
        "numberOfBytes": "32",
        "value": "t_bool"
      },
      "t_mapping(t_address,t_mapping(t_address,t_bool))": {
        "encoding": "mapping",
        "key": "t_address",
        "label": "mapping(address => mapping(address => bool))",
        "numberOfBytes": "32",
        "value": "t_mapping(t_address,t_bool)"
      },
      "t_mapping(t_address,t_uint256)": {
        "encoding": "mapping",
        "key": "t_address",
        "label": "mapping(address => uint256)",
        "numberOfBytes": "32",
        "value": "t_uint256"
      },
      "t_mapping(t_uint256,t_address)": {
        "encoding": "mapping",
        "key": "t_uint256",
        "label": "mapping(uint256 => address)",
        "numberOfBytes": "32",
        "value": "t_address"
      },
      "t_mapping(t_uint256,t_string_storage)": {
        "encoding": "mapping",
        "key": "t_uint256",
        "label": "mapping(uint256 => string)",
        "numberOfBytes": "32",
        "value": "t_string_storage"
      },
      "t_mapping(t_uint256,t_uint256)": {
        "encoding": "mapping",
        "key": "t_uint256",
        "label": "mapping(uint256 => uint256)",
        "numberOfBytes": "32",
        "value": "t_uint256"
      },
      "t_string_storage": {
        "encoding": "bytes",
        "label": "string",
        "numberOfBytes": "32"
      },
      "t_uint256": {
        "encoding": "inplace",
        "label": "uint256",
        "numberOfBytes": "32"
      }
    }
  }
}