{
  "address": "0xDc64a140Aa3E981100a9becA4E685f962f0cF6C9",
  "abi": [
    {
      "inputs": [
        {
          "internalType": "address",
          "name": "vrfCoordinatorV2",
          "type": "address"
        },
        {
          "internalType": "bytes32",
          "name": "gasLane",
          "type": "bytes32"
        },
        {
          "internalType": "uint64",
          "name": "subscriptionId",
          "type": "uint64"
        },
        {
          "internalType": "uint32",
          "name": "callbackGasLimit",
          "type": "uint32"
        }
      ],
      "stateMutability": "nonpayable",
      "type": "constructor"
    },
    {
      "inputs": [
        {
          "internalType": "address",
          "name": "have",
          "type": "address"
        },
        {
          "internalType": "address",
          "name": "want",
          "type": "address"
        }
      ],
      "name": "OnlyCoordinatorCanFulfill",
      "type": "error"
    },
    {
      "anonymous": false,
      "inputs": [
        {
          "indexed": true,
          "internalType": "address",
          "name": "owner",
          "type": "address"
        },
        {
          "indexed": true,
          "internalType": "address",
          "name": "approved",
          "type": "address"
        },
        {
          "indexed": true,
          "internalType": "uint256",
          "name": "tokenId",
          "type": "uint256"
        }
      ],
      "name": "Approval",
      "type": "event"
    },
    {
      "anonymous": false,
      "inputs": [
        {
          "indexed": true,
          "internalType": "address",
          "name": "owner",
          "type": "address"
        },
        {
          "indexed": true,
          "internalType": "address",
          "name": "operator",
          "type": "address"
        },
        {
          "indexed": false,
          "internalType": "bool",
          "name": "approved",
          "type": "bool"
        }
      ],
      "name": "ApprovalForAll",
      "type": "event"
    },
    {
      "anonymous": false,
      "inputs": [
        {
          "indexed": true,
          "internalType": "uint256",
          "name": "tokneId",
          "type": "uint256"
        },
        {
          "indexed": true,
          "internalType": "string",
          "name": "tokenURI",
          "type": "string"
        }
      ],
      "name": "CreatedRandomSVG",
      "type": "event"
    },
    {
      "anonymous": false,
      "inputs": [
        {
          "indexed": true,
          "internalType": "uint256",
          "name": "tokenId",
          "type": "uint256"
        },
        {
          "indexed": true,
          "internalType": "uint256",
          "name": "randomNumber",
          "type": "uint256"
        }
      ],
      "name": "CreatedUnfinishedRandomSVG",
      "type": "event"
    },
    {
      "anonymous": false,
      "inputs": [
        {
          "indexed": true,
          "internalType": "uint256",
          "name": "requestId",
          "type": "uint256"
        },
        {
          "indexed": true,
          "internalType": "uint256",
          "name": "tokenId",
          "type": "uint256"
        },
        {
          "indexed": true,
          "internalType": "address",
          "name": "sender",
          "type": "address"
        }
      ],
      "name": "RequestedRandomSVG",
      "type": "event"
    },
    {
      "anonymous": false,
      "inputs": [
        {
          "indexed": true,
          "internalType": "address",
          "name": "from",
          "type": "address"
        },
        {
          "indexed": true,
          "internalType": "address",
          "name": "to",
          "type": "address"
        },
        {
          "indexed": true,
          "internalType": "uint256",
          "name": "tokenId",
          "type": "uint256"
        }
      ],
      "name": "Transfer",
      "type": "event"
    },
    {
      "inputs": [
        {
          "internalType": "address",
          "name": "to",
          "type": "address"
        },
        {
          "internalType": "uint256",
          "name": "tokenId",
          "type": "uint256"
        }
      ],
      "name": "approve",
      "outputs": [],
      "stateMutability": "nonpayable",
      "type": "function"
    },
    {
      "inputs": [
        {
          "internalType": "address",
          "name": "owner",
          "type": "address"
        }
      ],
      "name": "balanceOf",
      "outputs": [
        {
          "internalType": "uint256",
          "name": "",
          "type": "uint256"
        }
      ],
      "stateMutability": "view",
      "type": "function"
    },
    {
      "inputs": [
        {
          "internalType": "uint256",
          "name": "",
          "type": "uint256"
        }
      ],
      "name": "colors",
      "outputs": [
        {
          "internalType": "string",
          "name": "",
          "type": "string"
        }
      ],
      "stateMutability": "view",
      "type": "function"
    },
    {
      "inputs": [],
      "name": "createNFT",
      "outputs": [
        {
          "internalType": "uint256",
          "name": "requestId",
          "type": "uint256"
        }
      ],
      "stateMutability": "nonpayable",
      "type": "function"
    },
    {
      "inputs": [
        {
          "internalType": "uint256",
          "name": "_tokenId",
          "type": "uint256"
        }
      ],
      "name": "finishMint",
      "outputs": [],
      "stateMutability": "nonpayable",
      "type": "function"
    },
    {
      "inputs": [
        {
          "internalType": "uint256",
          "name": "tokenId",
          "type": "uint256"
        }
      ],
      "name": "getApproved",
      "outputs": [
        {
          "internalType": "address",
          "name": "",
          "type": "address"
        }
      ],
      "stateMutability": "view",
      "type": "function"
    },
    {
      "inputs": [],
      "name": "getTokenCounter",
      "outputs": [
        {
          "internalType": "uint256",
          "name": "",
          "type": "uint256"
        }
      ],
      "stateMutability": "view",
      "type": "function"
    },
    {
      "inputs": [
        {
          "internalType": "address",
          "name": "owner",
          "type": "address"
        },
        {
          "internalType": "address",
          "name": "operator",
          "type": "address"
        }
      ],
      "name": "isApprovedForAll",
      "outputs": [
        {
          "internalType": "bool",
          "name": "",
          "type": "bool"
        }
      ],
      "stateMutability": "view",
      "type": "function"
    },
    {
      "inputs": [],
      "name": "maxNumberOfPathCommands",
      "outputs": [
        {
          "internalType": "uint256",
          "name": "",
          "type": "uint256"
        }
      ],
      "stateMutability": "view",
      "type": "function"
    },
    {
      "inputs": [],
      "name": "maxNumberOfPaths",
      "outputs": [
        {
          "internalType": "uint256",
          "name": "",
          "type": "uint256"
        }
      ],
      "stateMutability": "view",
      "type": "function"
    },
    {
      "inputs": [],
      "name": "name",
      "outputs": [
        {
          "internalType": "string",
          "name": "",
          "type": "string"
        }
      ],
      "stateMutability": "view",
      "type": "function"
    },
    {
      "inputs": [
        {
          "internalType": "uint256",
          "name": "tokenId",
          "type": "uint256"
        }
      ],
      "name": "ownerOf",
      "outputs": [
        {
          "internalType": "address",
          "name": "",
          "type": "address"
        }
      ],
      "stateMutability": "view",
      "type": "function"
    },
    {
      "inputs": [
        {
          "internalType": "uint256",
          "name": "",
          "type": "uint256"
        }
      ],
      "name": "pathCommands",
      "outputs": [
        {
          "internalType": "string",
          "name": "",
          "type": "string"
        }
      ],
      "stateMutability": "view",
      "type": "function"
    },
    {
      "inputs": [
        {
          "internalType": "uint256",
          "name": "requestId",
          "type": "uint256"
        },
        {
          "internalType": "uint256[]",
          "name": "randomWords",
          "type": "uint256[]"
        }
      ],
      "name": "rawFulfillRandomWords",
      "outputs": [],
      "stateMutability": "nonpayable",
      "type": "function"
    },
    {
      "inputs": [
        {
          "internalType": "uint256",
          "name": "",
          "type": "uint256"
        }
      ],
      "name": "requestIdToSender",
      "outputs": [
        {
          "internalType": "address",
          "name": "",
          "type": "address"
        }
      ],
      "stateMutability": "view",
      "type": "function"
    },
    {
      "inputs": [
        {
          "internalType": "uint256",
          "name": "",
          "type": "uint256"
        }
      ],
      "name": "requestIdToTokenId",
      "outputs": [
        {
          "internalType": "uint256",
          "name": "",
          "type": "uint256"
        }
      ],
      "stateMutability": "view",
      "type": "function"
    },
    {
      "inputs": [
        {
          "internalType": "address",
          "name": "from",
          "type": "address"
        },
        {
          "internalType": "address",
          "name": "to",
          "type": "address"
        },
        {
          "internalType": "uint256",
          "name": "tokenId",
          "type": "uint256"
        }
      ],
      "name": "safeTransferFrom",
      "outputs": [],
      "stateMutability": "nonpayable",
      "type": "function"
    },
    {
      "inputs": [
        {
          "internalType": "address",
          "name": "from",
          "type": "address"
        },
        {
          "internalType": "address",
          "name": "to",
          "type": "address"
        },
        {
          "internalType": "uint256",
          "name": "tokenId",
          "type": "uint256"
        },
        {
          "internalType": "bytes",
          "name": "data",
          "type": "bytes"
        }
      ],
      "name": "safeTransferFrom",
      "outputs": [],
      "stateMutability": "nonpayable",
      "type": "function"
    },
    {
      "inputs": [
        {
          "internalType": "address",
          "name": "operator",
          "type": "address"
        },
        {
          "internalType": "bool",
          "name": "approved",
          "type": "bool"
        }
      ],
      "name": "setApprovalForAll",
      "outputs": [],
      "stateMutability": "nonpayable",
      "type": "function"
    },
    {
      "inputs": [],
      "name": "size",
      "outputs": [
        {
          "internalType": "uint256",
          "name": "",
          "type": "uint256"
        }
      ],
      "stateMutability": "view",
      "type": "function"
    },
    {
      "inputs": [
        {
          "internalType": "bytes4",
          "name": "interfaceId",
          "type": "bytes4"
        }
      ],
      "name": "supportsInterface",
      "outputs": [
        {
          "internalType": "bool",
          "name": "",
          "type": "bool"
        }
      ],
      "stateMutability": "view",
      "type": "function"
    },
    {
      "inputs": [],
      "name": "symbol",
      "outputs": [
        {
          "internalType": "string",
          "name": "",
          "type": "string"
        }
      ],
      "stateMutability": "view",
      "type": "function"
    },
    {
      "inputs": [
        {
          "internalType": "uint256",
          "name": "",
          "type": "uint256"
        }
      ],
      "name": "tokenIdToRandomNumber",
      "outputs": [
        {
          "internalType": "uint256",
          "name": "",
          "type": "uint256"
        }
      ],
      "stateMutability": "view",
      "type": "function"
    },
    {
      "inputs": [
        {
          "internalType": "uint256",
          "name": "tokenId",
          "type": "uint256"
        }
      ],
      "name": "tokenURI",
      "outputs": [
        {
          "internalType": "string",
          "name": "",
          "type": "string"
        }
      ],
      "stateMutability": "view",
      "type": "function"
    },
    {
      "inputs": [
        {
          "internalType": "address",
          "name": "from",
          "type": "address"
        },
        {
          "internalType": "address",
          "name": "to",
          "type": "address"
        },
        {
          "internalType": "uint256",
          "name": "tokenId",
          "type": "uint256"
        }
      ],
      "name": "transferFrom",
      "outputs": [],
      "stateMutability": "nonpayable",
      "type": "function"
    }
  ],
  "transactionHash": "0xea3a988dd0ed70c303da0e38eef7aabdeae5bcbf86863dd66a28dce2d9b815de",
  "args": [
    "0x5FbDB2315678afecb367f032d93F642f64180aa3",
    "0x79d3d8832d904592c0bf9818b621522c988bb8b0c05cdc3b15aea1b6e8db0c15",
    "1",
    "1500000"
  ],
  "numDeployments": 1,
  "solcInputHash": "2546639d47aa7ed8e5419fd0df313381",
  "bytecode": "0x6101206040523480156200001257600080fd5b5060405162004d5b38038062004d5b833981810160405281019062000038919062000620565b836040518060400160405280600c81526020017f52616e646f6d5356474e465400000000000000000000000000000000000000008152506040518060400160405280600c81526020017f72616e646f6d5356474e465400000000000000000000000000000000000000008152508160009081620000b691906200090c565b508060019081620000c891906200090c565b5050508073ffffffffffffffffffffffffffffffffffffffff1660808173ffffffffffffffffffffffffffffffffffffffff1681525050508373ffffffffffffffffffffffffffffffffffffffff1660a08173ffffffffffffffffffffffffffffffffffffffff16815250508260c081815250508167ffffffffffffffff1660e08167ffffffffffffffff16815250508063ffffffff166101008163ffffffff16815250506000600c81905550602860078190555060146008819055506101f460098190555060405180604001604052806040518060400160405280600181526020017f4d0000000000000000000000000000000000000000000000000000000000000081525081526020016040518060400160405280600181526020017f4c00000000000000000000000000000000000000000000000000000000000000815250815250600a9060026200021f929190620003a8565b506040518060c001604052806040518060400160405280600381526020017f726564000000000000000000000000000000000000000000000000000000000081525081526020016040518060400160405280600481526020017f626c75650000000000000000000000000000000000000000000000000000000081525081526020016040518060400160405280600581526020017f677265656e00000000000000000000000000000000000000000000000000000081525081526020016040518060400160405280600681526020017f79656c6c6f77000000000000000000000000000000000000000000000000000081525081526020016040518060400160405280600581526020017f626c61636b00000000000000000000000000000000000000000000000000000081525081526020016040518060400160405280600581526020017f7768697465000000000000000000000000000000000000000000000000000000815250815250600b9060066200039d92919062000408565b5050505050620009f3565b828054828255906000526020600020908101928215620003f5579160200282015b82811115620003f4578251829081620003e391906200090c565b5091602001919060010190620003c9565b5b50905062000404919062000468565b5090565b82805482825590600052602060002090810192821562000455579160200282015b82811115620004545782518290816200044391906200090c565b509160200191906001019062000429565b5b50905062000464919062000468565b5090565b5b808211156200048c576000818162000482919062000490565b5060010162000469565b5090565b5080546200049e90620006fb565b6000825580601f10620004b25750620004d3565b601f016020900490600052602060002090810190620004d29190620004d6565b5b50565b5b80821115620004f1576000816000905550600101620004d7565b5090565b600080fd5b600073ffffffffffffffffffffffffffffffffffffffff82169050919050565b60006200052782620004fa565b9050919050565b62000539816200051a565b81146200054557600080fd5b50565b60008151905062000559816200052e565b92915050565b6000819050919050565b62000574816200055f565b81146200058057600080fd5b50565b600081519050620005948162000569565b92915050565b600067ffffffffffffffff82169050919050565b620005b9816200059a565b8114620005c557600080fd5b50565b600081519050620005d981620005ae565b92915050565b600063ffffffff82169050919050565b620005fa81620005df565b81146200060657600080fd5b50565b6000815190506200061a81620005ef565b92915050565b600080600080608085870312156200063d576200063c620004f5565b5b60006200064d8782880162000548565b9450506020620006608782880162000583565b93505060406200067387828801620005c8565b9250506060620006868782880162000609565b91505092959194509250565b600081519050919050565b7f4e487b7100000000000000000000000000000000000000000000000000000000600052604160045260246000fd5b7f4e487b7100000000000000000000000000000000000000000000000000000000600052602260045260246000fd5b600060028204905060018216806200071457607f821691505b6020821081036200072a5762000729620006cc565b5b50919050565b60008190508160005260206000209050919050565b60006020601f8301049050919050565b600082821b905092915050565b600060088302620007947fffffffffffffffffffffffffffffffffffffffffffffffffffffffffffffffff8262000755565b620007a0868362000755565b95508019841693508086168417925050509392505050565b6000819050919050565b6000819050919050565b6000620007ed620007e7620007e184620007b8565b620007c2565b620007b8565b9050919050565b6000819050919050565b6200080983620007cc565b620008216200081882620007f4565b84845462000762565b825550505050565b600090565b6200083862000829565b62000845818484620007fe565b505050565b5b818110156200086d57620008616000826200082e565b6001810190506200084b565b5050565b601f821115620008bc57620008868162000730565b620008918462000745565b81016020851015620008a1578190505b620008b9620008b08562000745565b8301826200084a565b50505b505050565b600082821c905092915050565b6000620008e160001984600802620008c1565b1980831691505092915050565b6000620008fc8383620008ce565b9150826002028217905092915050565b620009178262000692565b67ffffffffffffffff8111156200093357620009326200069d565b5b6200093f8254620006fb565b6200094c82828562000871565b600060209050601f8311600181146200098457600084156200096f578287015190505b6200097b8582620008ee565b865550620009eb565b601f198416620009948662000730565b60005b82811015620009be5784890151825560018201915060208501945060208101905062000997565b86831015620009de5784890151620009da601f891682620008ce565b8355505b6001600288020188555050505b505050505050565b60805160a05160c05160e0516101005161431c62000a3f6000396000610cbd01526000610c9a01526000610c7901526000610c3d015260008181610809015261085d015261431c6000f3fe608060405234801561001057600080fd5b50600436106101735760003560e01c806370a08231116100de5780639c1cd79511610097578063bd11f69d11610071578063bd11f69d14610470578063c21bf36f146104a0578063c87b56dd146104be578063e985e9c5146104ee57610173565b80639c1cd79514610408578063a22cb46514610438578063b88d4fde1461045457610173565b806370a082311461031e5780638a97ec2a1461034e5780638e2de4d31461036c578063949d225d1461039c578063955968d4146103ba57806395d89b41146103ea57610173565b806323b872dd1161013057806323b872dd1461025e57806342842e0e1461027a57806348e896ab14610296578063624194c7146102b45780636352211e146102d05780636e02007d1461030057610173565b806301ffc9a71461017857806306fdde03146101a85780630750b163146101c6578063081812fc146101f6578063095ea7b3146102265780631fe543e314610242575b600080fd5b610192600480360381019061018d919061279c565b61051e565b60405161019f91906127e4565b60405180910390f35b6101b0610600565b6040516101bd919061288f565b60405180910390f35b6101e060048036038101906101db91906128e7565b610692565b6040516101ed9190612923565b60405180910390f35b610210600480360381019061020b91906128e7565b6106aa565b60405161021d919061297f565b60405180910390f35b610240600480360381019061023b91906129c6565b6106f0565b005b61025c60048036038101906102579190612b4e565b610807565b005b61027860048036038101906102739190612baa565b6108c7565b005b610294600480360381019061028f9190612baa565b610927565b005b61029e610947565b6040516102ab9190612923565b60405180910390f35b6102ce60048036038101906102c991906128e7565b61094d565b005b6102ea60048036038101906102e591906128e7565b610ac7565b6040516102f7919061297f565b60405180910390f35b610308610b78565b6040516103159190612923565b60405180910390f35b61033860048036038101906103339190612bfd565b610b82565b6040516103459190612923565b60405180910390f35b610356610c39565b6040516103639190612923565b60405180910390f35b610386600480360381019061038191906128e7565b610e17565b604051610393919061297f565b60405180910390f35b6103a4610e4a565b6040516103b19190612923565b60405180910390f35b6103d460048036038101906103cf91906128e7565b610e50565b6040516103e1919061288f565b60405180910390f35b6103f2610efc565b6040516103ff919061288f565b60405180910390f35b610422600480360381019061041d91906128e7565b610f8e565b60405161042f9190612923565b60405180910390f35b610452600480360381019061044d9190612c56565b610fa6565b005b61046e60048036038101906104699190612d4b565b610fbc565b005b61048a600480360381019061048591906128e7565b61101e565b604051610497919061288f565b60405180910390f35b6104a86110ca565b6040516104b59190612923565b60405180910390f35b6104d860048036038101906104d391906128e7565b6110d0565b6040516104e5919061288f565b60405180910390f35b61050860048036038101906105039190612dce565b6111e2565b60405161051591906127e4565b60405180910390f35b60007f80ac58cd000000000000000000000000000000000000000000000000000000007bffffffffffffffffffffffffffffffffffffffffffffffffffffffff1916827bffffffffffffffffffffffffffffffffffffffffffffffffffffffff191614806105e957507f5b5e139f000000000000000000000000000000000000000000000000000000007bffffffffffffffffffffffffffffffffffffffffffffffffffffffff1916827bffffffffffffffffffffffffffffffffffffffffffffffffffffffff1916145b806105f957506105f882611276565b5b9050919050565b60606000805461060f90612e3d565b80601f016020809104026020016040519081016040528092919081815260200182805461063b90612e3d565b80156106885780601f1061065d57610100808354040283529160200191610688565b820191906000526020600020905b81548152906001019060200180831161066b57829003601f168201915b5050505050905090565b600e6020528060005260406000206000915090505481565b60006106b5826112e0565b6004600083815260200190815260200160002060009054906101000a900473ffffffffffffffffffffffffffffffffffffffff169050919050565b60006106fb82610ac7565b90508073ffffffffffffffffffffffffffffffffffffffff168373ffffffffffffffffffffffffffffffffffffffff160361076b576040517f08c379a000000000000000000000000000000000000000000000000000000000815260040161076290612ee0565b60405180910390fd5b8073ffffffffffffffffffffffffffffffffffffffff1661078a61132b565b73ffffffffffffffffffffffffffffffffffffffff1614806107b957506107b8816107b361132b565b6111e2565b5b6107f8576040517f08c379a00000000000000000000000000000000000000000000000000000000081526004016107ef90612f72565b60405180910390fd5b6108028383611333565b505050565b7f000000000000000000000000000000000000000000000000000000000000000073ffffffffffffffffffffffffffffffffffffffff163373ffffffffffffffffffffffffffffffffffffffff16146108b957337f00000000000000000000000000000000000000000000000000000000000000006040517f1cf993f40000000000000000000000000000000000000000000000000000000081526004016108b0929190612f92565b60405180910390fd5b6108c382826113ec565b5050565b6108d86108d261132b565b826114b3565b610917576040517f08c379a000000000000000000000000000000000000000000000000000000000815260040161090e9061302d565b60405180910390fd5b610922838383611548565b505050565b61094283838360405180602001604052806000815250610fbc565b505050565b60085481565b6000610958826110d0565b51111561099a576040517f08c379a0000000000000000000000000000000000000000000000000000000008152600401610991906130bf565b60405180910390fd5b80600c54116109de576040517f08c379a00000000000000000000000000000000000000000000000000000000081526004016109d59061312b565b60405180910390fd5b6000600f60008381526020019081526020016000205411610a34576040517f08c379a0000000000000000000000000000000000000000000000000000000008152600401610a2b906131bd565b60405180910390fd5b6000600f60008381526020019081526020016000205490506000610a57826117ae565b90506000610a64826118b0565b90506000610a7182611943565b9050610a7d85826119d9565b80604051610a8b9190613219565b6040518091039020857f15a6487b7915a7116ce2a61d43b17e9b47484b1931f3c79f2f3d139b307b389360405160405180910390a35050505050565b6000806002600084815260200190815260200160002060009054906101000a900473ffffffffffffffffffffffffffffffffffffffff169050600073ffffffffffffffffffffffffffffffffffffffff168173ffffffffffffffffffffffffffffffffffffffff1603610b6f576040517f08c379a0000000000000000000000000000000000000000000000000000000008152600401610b669061327c565b60405180910390fd5b80915050919050565b6000600c54905090565b60008073ffffffffffffffffffffffffffffffffffffffff168273ffffffffffffffffffffffffffffffffffffffff1603610bf2576040517f08c379a0000000000000000000000000000000000000000000000000000000008152600401610be99061330e565b60405180910390fd5b600360008373ffffffffffffffffffffffffffffffffffffffff1673ffffffffffffffffffffffffffffffffffffffff168152602001908152602001600020549050919050565b60007f000000000000000000000000000000000000000000000000000000000000000073ffffffffffffffffffffffffffffffffffffffff16635d3b1d307f00000000000000000000000000000000000000000000000000000000000000007f000000000000000000000000000000000000000000000000000000000000000060037f000000000000000000000000000000000000000000000000000000000000000060016040518663ffffffff1660e01b8152600401610cfe9594939291906133a6565b6020604051808303816000875af1158015610d1d573d6000803e3d6000fd5b505050506040513d601f19601f82011682018060405250810190610d41919061340e565b905033600d600083815260200190815260200160002060006101000a81548173ffffffffffffffffffffffffffffffffffffffff021916908373ffffffffffffffffffffffffffffffffffffffff1602179055506000600c54905080600e6000848152602001908152602001600020819055506001600c6000828254610dc7919061346a565b925050819055503373ffffffffffffffffffffffffffffffffffffffff1681837fda4a069893f9efe109727074bcfb4202d8a3afe04e86f22aa953ca02fc42ea9260405160405180910390a45090565b600d6020528060005260406000206000915054906101000a900473ffffffffffffffffffffffffffffffffffffffff1681565b60095481565b600a8181548110610e6057600080fd5b906000526020600020016000915090508054610e7b90612e3d565b80601f0160208091040260200160405190810160405280929190818152602001828054610ea790612e3d565b8015610ef45780601f10610ec957610100808354040283529160200191610ef4565b820191906000526020600020905b815481529060010190602001808311610ed757829003601f168201915b505050505081565b606060018054610f0b90612e3d565b80601f0160208091040260200160405190810160405280929190818152602001828054610f3790612e3d565b8015610f845780601f10610f5957610100808354040283529160200191610f84565b820191906000526020600020905b815481529060010190602001808311610f6757829003601f168201915b5050505050905090565b600f6020528060005260406000206000915090505481565b610fb8610fb161132b565b8383611a46565b5050565b610fcd610fc761132b565b836114b3565b61100c576040517f08c379a00000000000000000000000000000000000000000000000000000000081526004016110039061302d565b60405180910390fd5b61101884848484611bb2565b50505050565b600b818154811061102e57600080fd5b90600052602060002001600091509050805461104990612e3d565b80601f016020809104026020016040519081016040528092919081815260200182805461107590612e3d565b80156110c25780601f10611097576101008083540402835291602001916110c2565b820191906000526020600020905b8154815290600101906020018083116110a557829003601f168201915b505050505081565b60075481565b60606110db826112e0565b60006006600084815260200190815260200160002080546110fb90612e3d565b80601f016020809104026020016040519081016040528092919081815260200182805461112790612e3d565b80156111745780601f1061114957610100808354040283529160200191611174565b820191906000526020600020905b81548152906001019060200180831161115757829003601f168201915b505050505090506000611185611c0e565b9050600081510361119a5781925050506111dd565b6000825111156111cf5780826040516020016111b792919061349e565b604051602081830303815290604052925050506111dd565b6111d884611c25565b925050505b919050565b6000600560008473ffffffffffffffffffffffffffffffffffffffff1673ffffffffffffffffffffffffffffffffffffffff16815260200190815260200160002060008373ffffffffffffffffffffffffffffffffffffffff1673ffffffffffffffffffffffffffffffffffffffff16815260200190815260200160002060009054906101000a900460ff16905092915050565b60007f01ffc9a7000000000000000000000000000000000000000000000000000000007bffffffffffffffffffffffffffffffffffffffffffffffffffffffff1916827bffffffffffffffffffffffffffffffffffffffffffffffffffffffff1916149050919050565b6112e981611c8d565b611328576040517f08c379a000000000000000000000000000000000000000000000000000000000815260040161131f9061327c565b60405180910390fd5b50565b600033905090565b816004600083815260200190815260200160002060006101000a81548173ffffffffffffffffffffffffffffffffffffffff021916908373ffffffffffffffffffffffffffffffffffffffff160217905550808273ffffffffffffffffffffffffffffffffffffffff166113a683610ac7565b73ffffffffffffffffffffffffffffffffffffffff167f8c5be1e5ebec7d5bd14f71427d1e84f3dd0314c0f7b2291e5b200ac8c7c3b92560405160405180910390a45050565b600081600081518110611402576114016134c2565b5b602002602001015190506000600d600085815260200190815260200160002060009054906101000a900473ffffffffffffffffffffffffffffffffffffffff1690506000600e60008681526020019081526020016000205490506114668282611cf9565b82600f60008381526020019081526020016000208190555082817faad5362ce528ed941024b95d4c18dfd49b8503e1f586a5c353631d98c2af41b760405160405180910390a35050505050565b6000806114bf83610ac7565b90508073ffffffffffffffffffffffffffffffffffffffff168473ffffffffffffffffffffffffffffffffffffffff161480611501575061150081856111e2565b5b8061153f57508373ffffffffffffffffffffffffffffffffffffffff16611527846106aa565b73ffffffffffffffffffffffffffffffffffffffff16145b91505092915050565b8273ffffffffffffffffffffffffffffffffffffffff1661156882610ac7565b73ffffffffffffffffffffffffffffffffffffffff16146115be576040517f08c379a00000000000000000000000000000000000000000000000000000000081526004016115b590613563565b60405180910390fd5b600073ffffffffffffffffffffffffffffffffffffffff168273ffffffffffffffffffffffffffffffffffffffff160361162d576040517f08c379a0000000000000000000000000000000000000000000000000000000008152600401611624906135f5565b60405180910390fd5b611638838383611d17565b611643600082611333565b6001600360008573ffffffffffffffffffffffffffffffffffffffff1673ffffffffffffffffffffffffffffffffffffffff16815260200190815260200160002060008282546116939190613615565b925050819055506001600360008473ffffffffffffffffffffffffffffffffffffffff1673ffffffffffffffffffffffffffffffffffffffff16815260200190815260200160002060008282546116ea919061346a565b92505081905550816002600083815260200190815260200160002060006101000a81548173ffffffffffffffffffffffffffffffffffffffff021916908373ffffffffffffffffffffffffffffffffffffffff160217905550808273ffffffffffffffffffffffffffffffffffffffff168473ffffffffffffffffffffffffffffffffffffffff167fddf252ad1be2c89b69c2b068fc378daa952ba7f163c4a11628f55a4df523b3ef60405160405180910390a46117a9838383611d1c565b505050565b606060006001600754846117c29190613678565b6117cc919061346a565b90506117d9600954611d21565b6117e4600954611d21565b6040516020016117f59291906137b3565b604051602081830303815290604052915060005b8181101561188757600084826040516020016118269291906137f8565b6040516020818303038152906040528051906020012060001c9050600061184c82611e81565b9050848160405160200161186192919061349e565b60405160208183030381529060405294505050808061187f90613821565b915050611809565b508160405160200161189991906138b5565b604051602081830303815290604052915050919050565b606060006040518060400160405280601a81526020017f646174613a696d6167652f7376672b786d6c3b6261736536342c00000000000081525090506000611916846040516020016119029190613219565b60405160208183030381529060405261204d565b9050818160405160200161192b92919061349e565b60405160208183030381529060405292505050919050565b606060006040518060400160405280601d81526020017f646174613a6170706c69636174696f6e2f6a736f6e3b6261736536342c0000008152509050806119b161198b610600565b8560405160200161199d929190613a9f565b60405160208183030381529060405261204d565b6040516020016119c292919061349e565b604051602081830303815290604052915050919050565b6119e282611c8d565b611a21576040517f08c379a0000000000000000000000000000000000000000000000000000000008152600401611a1890613b6c565b60405180910390fd5b80600660008481526020019081526020016000209081611a419190613d38565b505050565b8173ffffffffffffffffffffffffffffffffffffffff168373ffffffffffffffffffffffffffffffffffffffff1603611ab4576040517f08c379a0000000000000000000000000000000000000000000000000000000008152600401611aab90613e56565b60405180910390fd5b80600560008573ffffffffffffffffffffffffffffffffffffffff1673ffffffffffffffffffffffffffffffffffffffff16815260200190815260200160002060008473ffffffffffffffffffffffffffffffffffffffff1673ffffffffffffffffffffffffffffffffffffffff16815260200190815260200160002060006101000a81548160ff0219169083151502179055508173ffffffffffffffffffffffffffffffffffffffff168373ffffffffffffffffffffffffffffffffffffffff167f17307eab39ab6107e8899845ad3d59bd9653f200f220920489ca2b5937696c3183604051611ba591906127e4565b60405180910390a3505050565b611bbd848484611548565b611bc9848484846121c5565b611c08576040517f08c379a0000000000000000000000000000000000000000000000000000000008152600401611bff90613ee8565b60405180910390fd5b50505050565b606060405180602001604052806000815250905090565b6060611c30826112e0565b6000611c3a611c0e565b90506000815111611c5a5760405180602001604052806000815250611c85565b80611c6484611d21565b604051602001611c7592919061349e565b6040516020818303038152906040525b915050919050565b60008073ffffffffffffffffffffffffffffffffffffffff166002600084815260200190815260200160002060009054906101000a900473ffffffffffffffffffffffffffffffffffffffff1673ffffffffffffffffffffffffffffffffffffffff1614159050919050565b611d1382826040518060200160405280600081525061234c565b5050565b505050565b505050565b606060008203611d68576040518060400160405280600181526020017f30000000000000000000000000000000000000000000000000000000000000008152509050611e7c565b600082905060005b60008214611d9a578080611d8390613821565b915050600a82611d939190613f08565b9150611d70565b60008167ffffffffffffffff811115611db657611db5612a0b565b5b6040519080825280601f01601f191660200182016040528015611de85781602001600182028036833780820191505090505b5090505b60008514611e7557600182611e019190613615565b9150600a85611e109190613678565b6030611e1c919061346a565b60f81b818381518110611e3257611e316134c2565b5b60200101907effffffffffffffffffffffffffffffffffffffffffffffffffffffffffffff1916908160001a905350600a85611e6e9190613f08565b9450611dec565b8093505050505b919050565b60606000600160085484611e959190613678565b611e9f919061346a565b90506040518060400160405280600981526020017f3c7061746820643d270000000000000000000000000000000000000000000000815250915060005b81811015611f675760008482600954611ef5919061346a565b604051602001611f069291906137f8565b6040516020818303038152906040528051906020012060001c90506000611f2c826123a7565b90508481604051602001611f4192919061349e565b604051602081830303815290604052945050508080611f5f90613821565b915050611edc565b506000600b808054905085611f7c9190613678565b81548110611f8d57611f8c6134c2565b5b906000526020600020018054611fa290612e3d565b80601f0160208091040260200160405190810160405280929190818152602001828054611fce90612e3d565b801561201b5780601f10611ff05761010080835404028352916020019161201b565b820191906000526020600020905b815481529060010190602001808311611ffe57829003601f168201915b505050505090508281604051602001612035929190613fd1565b60405160208183030381529060405292505050919050565b6060600082510361206f576040518060200160405280600081525090506121c0565b60006040518060600160405280604081526020016142a7604091399050600060036002855161209e919061346a565b6120a89190613f08565b60046120b4919061400b565b905060006020826120c5919061346a565b67ffffffffffffffff8111156120de576120dd612a0b565b5b6040519080825280601f01601f1916602001820160405280156121105781602001600182028036833780820191505090505b509050818152600183018586518101602084015b8183101561217f576003830192508251603f8160121c168501518253600182019150603f81600c1c168501518253600182019150603f8160061c168501518253600182019150603f8116850151825360018201915050612124565b60038951066001811461219957600281146121a9576121b4565b613d3d60f01b60028303526121b4565b603d60f81b60018303525b50505050508093505050505b919050565b60006121e68473ffffffffffffffffffffffffffffffffffffffff16612534565b1561233f578373ffffffffffffffffffffffffffffffffffffffff1663150b7a0261220f61132b565b8786866040518563ffffffff1660e01b815260040161223194939291906140a2565b6020604051808303816000875af192505050801561226d57506040513d601f19601f8201168201806040525081019061226a9190614103565b60015b6122ef573d806000811461229d576040519150601f19603f3d011682016040523d82523d6000602084013e6122a2565b606091505b5060008151036122e7576040517f08c379a00000000000000000000000000000000000000000000000000000000081526004016122de90613ee8565b60405180910390fd5b805181602001fd5b63150b7a0260e01b7bffffffffffffffffffffffffffffffffffffffffffffffffffffffff1916817bffffffffffffffffffffffffffffffffffffffffffffffffffffffff191614915050612344565b600190505b949350505050565b6123568383612557565b61236360008484846121c5565b6123a2576040517f08c379a000000000000000000000000000000000000000000000000000000000815260040161239990613ee8565b60405180910390fd5b505050565b6060600a8080549050836123bb9190613678565b815481106123cc576123cb6134c2565b5b9060005260206000200180546123e190612e3d565b80601f016020809104026020016040519081016040528092919081815260200182805461240d90612e3d565b801561245a5780601f1061242f5761010080835404028352916020019161245a565b820191906000526020600020905b81548152906001019060200180831161243d57829003601f168201915b505050505090506000600954836002600954612476919061400b565b6040516020016124879291906137f8565b6040516020818303038152906040528051906020012060001c6124aa9190613678565b905060006009548460026009546124c1919061346a565b6040516020016124d29291906137f8565b6040516020818303038152906040528051906020012060001c6124f59190613678565b90508261250183611d21565b61250a83611d21565b60405160200161251c9392919061417c565b60405160208183030381529060405292505050919050565b6000808273ffffffffffffffffffffffffffffffffffffffff163b119050919050565b600073ffffffffffffffffffffffffffffffffffffffff168273ffffffffffffffffffffffffffffffffffffffff16036125c6576040517f08c379a00000000000000000000000000000000000000000000000000000000081526004016125bd9061421a565b60405180910390fd5b6125cf81611c8d565b1561260f576040517f08c379a000000000000000000000000000000000000000000000000000000000815260040161260690614286565b60405180910390fd5b61261b60008383611d17565b6001600360008473ffffffffffffffffffffffffffffffffffffffff1673ffffffffffffffffffffffffffffffffffffffff168152602001908152602001600020600082825461266b919061346a565b92505081905550816002600083815260200190815260200160002060006101000a81548173ffffffffffffffffffffffffffffffffffffffff021916908373ffffffffffffffffffffffffffffffffffffffff160217905550808273ffffffffffffffffffffffffffffffffffffffff16600073ffffffffffffffffffffffffffffffffffffffff167fddf252ad1be2c89b69c2b068fc378daa952ba7f163c4a11628f55a4df523b3ef60405160405180910390a461272c60008383611d1c565b5050565b6000604051905090565b600080fd5b600080fd5b60007fffffffff0000000000000000000000000000000000000000000000000000000082169050919050565b61277981612744565b811461278457600080fd5b50565b60008135905061279681612770565b92915050565b6000602082840312156127b2576127b161273a565b5b60006127c084828501612787565b91505092915050565b60008115159050919050565b6127de816127c9565b82525050565b60006020820190506127f960008301846127d5565b92915050565b600081519050919050565b600082825260208201905092915050565b60005b8381101561283957808201518184015260208101905061281e565b60008484015250505050565b6000601f19601f8301169050919050565b6000612861826127ff565b61286b818561280a565b935061287b81856020860161281b565b61288481612845565b840191505092915050565b600060208201905081810360008301526128a98184612856565b905092915050565b6000819050919050565b6128c4816128b1565b81146128cf57600080fd5b50565b6000813590506128e1816128bb565b92915050565b6000602082840312156128fd576128fc61273a565b5b600061290b848285016128d2565b91505092915050565b61291d816128b1565b82525050565b60006020820190506129386000830184612914565b92915050565b600073ffffffffffffffffffffffffffffffffffffffff82169050919050565b60006129698261293e565b9050919050565b6129798161295e565b82525050565b60006020820190506129946000830184612970565b92915050565b6129a38161295e565b81146129ae57600080fd5b50565b6000813590506129c08161299a565b92915050565b600080604083850312156129dd576129dc61273a565b5b60006129eb858286016129b1565b92505060206129fc858286016128d2565b9150509250929050565b600080fd5b7f4e487b7100000000000000000000000000000000000000000000000000000000600052604160045260246000fd5b612a4382612845565b810181811067ffffffffffffffff82111715612a6257612a61612a0b565b5b80604052505050565b6000612a75612730565b9050612a818282612a3a565b919050565b600067ffffffffffffffff821115612aa157612aa0612a0b565b5b602082029050602081019050919050565b600080fd5b6000612aca612ac584612a86565b612a6b565b90508083825260208201905060208402830185811115612aed57612aec612ab2565b5b835b81811015612b165780612b0288826128d2565b845260208401935050602081019050612aef565b5050509392505050565b600082601f830112612b3557612b34612a06565b5b8135612b45848260208601612ab7565b91505092915050565b60008060408385031215612b6557612b6461273a565b5b6000612b73858286016128d2565b925050602083013567ffffffffffffffff811115612b9457612b9361273f565b5b612ba085828601612b20565b9150509250929050565b600080600060608486031215612bc357612bc261273a565b5b6000612bd1868287016129b1565b9350506020612be2868287016129b1565b9250506040612bf3868287016128d2565b9150509250925092565b600060208284031215612c1357612c1261273a565b5b6000612c21848285016129b1565b91505092915050565b612c33816127c9565b8114612c3e57600080fd5b50565b600081359050612c5081612c2a565b92915050565b60008060408385031215612c6d57612c6c61273a565b5b6000612c7b858286016129b1565b9250506020612c8c85828601612c41565b9150509250929050565b600080fd5b600067ffffffffffffffff821115612cb657612cb5612a0b565b5b612cbf82612845565b9050602081019050919050565b82818337600083830152505050565b6000612cee612ce984612c9b565b612a6b565b905082815260208101848484011115612d0a57612d09612c96565b5b612d15848285612ccc565b509392505050565b600082601f830112612d3257612d31612a06565b5b8135612d42848260208601612cdb565b91505092915050565b60008060008060808587031215612d6557612d6461273a565b5b6000612d73878288016129b1565b9450506020612d84878288016129b1565b9350506040612d95878288016128d2565b925050606085013567ffffffffffffffff811115612db657612db561273f565b5b612dc287828801612d1d565b91505092959194509250565b60008060408385031215612de557612de461273a565b5b6000612df3858286016129b1565b9250506020612e04858286016129b1565b9150509250929050565b7f4e487b7100000000000000000000000000000000000000000000000000000000600052602260045260246000fd5b60006002820490506001821680612e5557607f821691505b602082108103612e6857612e67612e0e565b5b50919050565b7f4552433732313a20617070726f76616c20746f2063757272656e74206f776e6560008201527f7200000000000000000000000000000000000000000000000000000000000000602082015250565b6000612eca60218361280a565b9150612ed582612e6e565b604082019050919050565b60006020820190508181036000830152612ef981612ebd565b9050919050565b7f4552433732313a20617070726f76652063616c6c6572206973206e6f7420746f60008201527f6b656e206f776e6572206e6f7220617070726f76656420666f7220616c6c0000602082015250565b6000612f5c603e8361280a565b9150612f6782612f00565b604082019050919050565b60006020820190508181036000830152612f8b81612f4f565b9050919050565b6000604082019050612fa76000830185612970565b612fb46020830184612970565b9392505050565b7f4552433732313a2063616c6c6572206973206e6f7420746f6b656e206f776e6560008201527f72206e6f7220617070726f766564000000000000000000000000000000000000602082015250565b6000613017602e8361280a565b915061302282612fbb565b604082019050919050565b600060208201905081810360008301526130468161300a565b9050919050565b7f546f6b656e2055524920697320616c726561647920616c6c207365742c20636160008201527f6e6e6f74206368616e67652069742e0000000000000000000000000000000000602082015250565b60006130a9602f8361280a565b91506130b48261304d565b604082019050919050565b600060208201905081810360008301526130d88161309c565b9050919050565b7f54686520746f6b656e20496420686173206e6f74206d696e746564207965742e600082015250565b600061311560208361280a565b9150613120826130df565b602082019050919050565b6000602082019050818103600083015261314481613108565b9050919050565b7f4e6f2072616e646f6d206e756d62657220666f756e64206173736f636974656460008201527f20776974682074686520666f6c6c6f77696e6720746f6b656e20496400000000602082015250565b60006131a7603c8361280a565b91506131b28261314b565b604082019050919050565b600060208201905081810360008301526131d68161319a565b9050919050565b600081905092915050565b60006131f3826127ff565b6131fd81856131dd565b935061320d81856020860161281b565b80840191505092915050565b600061322582846131e8565b915081905092915050565b7f4552433732313a20696e76616c696420746f6b656e2049440000000000000000600082015250565b600061326660188361280a565b915061327182613230565b602082019050919050565b6000602082019050818103600083015261329581613259565b9050919050565b7f4552433732313a2061646472657373207a65726f206973206e6f74206120766160008201527f6c6964206f776e65720000000000000000000000000000000000000000000000602082015250565b60006132f860298361280a565b91506133038261329c565b604082019050919050565b60006020820190508181036000830152613327816132eb565b9050919050565b6000819050919050565b6133418161332e565b82525050565b600067ffffffffffffffff82169050919050565b61336481613347565b82525050565b600061ffff82169050919050565b6133818161336a565b82525050565b600063ffffffff82169050919050565b6133a081613387565b82525050565b600060a0820190506133bb6000830188613338565b6133c8602083018761335b565b6133d56040830186613378565b6133e26060830185613397565b6133ef6080830184613397565b9695505050505050565b600081519050613408816128bb565b92915050565b6000602082840312156134245761342361273a565b5b6000613432848285016133f9565b91505092915050565b7f4e487b7100000000000000000000000000000000000000000000000000000000600052601160045260246000fd5b6000613475826128b1565b9150613480836128b1565b92508282019050808211156134985761349761343b565b5b92915050565b60006134aa82856131e8565b91506134b682846131e8565b91508190509392505050565b7f4e487b7100000000000000000000000000000000000000000000000000000000600052603260045260246000fd5b7f4552433732313a207472616e736665722066726f6d20696e636f72726563742060008201527f6f776e6572000000000000000000000000000000000000000000000000000000602082015250565b600061354d60258361280a565b9150613558826134f1565b604082019050919050565b6000602082019050818103600083015261357c81613540565b9050919050565b7f4552433732313a207472616e7366657220746f20746865207a65726f2061646460008201527f7265737300000000000000000000000000000000000000000000000000000000602082015250565b60006135df60248361280a565b91506135ea82613583565b604082019050919050565b6000602082019050818103600083015261360e816135d2565b9050919050565b6000613620826128b1565b915061362b836128b1565b92508282039050818111156136435761364261343b565b5b92915050565b7f4e487b7100000000000000000000000000000000000000000000000000000000600052601260045260246000fd5b6000613683826128b1565b915061368e836128b1565b92508261369e5761369d613649565b5b828206905092915050565b7f3c73766720786d6c6e733d27687474703a2f2f7777772e77332e6f72672f323060008201527f30302f73766727206865696768743d2700000000000000000000000000000000602082015250565b60006137056030836131dd565b9150613710826136a9565b603082019050919050565b7f272077696474683d270000000000000000000000000000000000000000000000600082015250565b60006137516009836131dd565b915061375c8261371b565b600982019050919050565b7f273e000000000000000000000000000000000000000000000000000000000000600082015250565b600061379d6002836131dd565b91506137a882613767565b600282019050919050565b60006137be826136f8565b91506137ca82856131e8565b91506137d582613744565b91506137e182846131e8565b91506137ec82613790565b91508190509392505050565b600060408201905061380d6000830185612914565b61381a6020830184612914565b9392505050565b600061382c826128b1565b91507fffffffffffffffffffffffffffffffffffffffffffffffffffffffffffffffff820361385e5761385d61343b565b5b600182019050919050565b7f203c2f7376673e00000000000000000000000000000000000000000000000000600082015250565b600061389f6007836131dd565b91506138aa82613869565b600782019050919050565b60006138c182846131e8565b91506138cc82613892565b915081905092915050565b7f7b226e616d65223a220000000000000000000000000000000000000000000000600082015250565b600061390d6009836131dd565b9150613918826138d7565b600982019050919050565b7f222c226465736372697074696f6e223a22412066756c6c206f6e20636861696e60008201527f2067656e6572617465642072616e646f6d20535647204e465422000000000000602082015250565b600061397f603a836131dd565b915061398a82613923565b603a82019050919050565b7f2261747472696275746573223a5b7b2272616e646f6d6e657373223a2231303060008201527f25222c22617765736f6d656e657373223a2231303025227d5d00000000000000602082015250565b60006139f16039836131dd565b91506139fc82613995565b603982019050919050565b7f22696d616765223a220000000000000000000000000000000000000000000000600082015250565b6000613a3d6009836131dd565b9150613a4882613a07565b600982019050919050565b7f227d000000000000000000000000000000000000000000000000000000000000600082015250565b6000613a896002836131dd565b9150613a9482613a53565b600282019050919050565b6000613aaa82613900565b9150613ab682856131e8565b9150613ac182613972565b9150613acc826139e4565b9150613ad782613a30565b9150613ae382846131e8565b9150613aee82613a7c565b91508190509392505050565b7f45524337323155524953746f726167653a2055524920736574206f66206e6f6e60008201527f6578697374656e7420746f6b656e000000000000000000000000000000000000602082015250565b6000613b56602e8361280a565b9150613b6182613afa565b604082019050919050565b60006020820190508181036000830152613b8581613b49565b9050919050565b60008190508160005260206000209050919050565b60006020601f8301049050919050565b600082821b905092915050565b600060088302613bee7fffffffffffffffffffffffffffffffffffffffffffffffffffffffffffffffff82613bb1565b613bf88683613bb1565b95508019841693508086168417925050509392505050565b6000819050919050565b6000613c35613c30613c2b846128b1565b613c10565b6128b1565b9050919050565b6000819050919050565b613c4f83613c1a565b613c63613c5b82613c3c565b848454613bbe565b825550505050565b600090565b613c78613c6b565b613c83818484613c46565b505050565b5b81811015613ca757613c9c600082613c70565b600181019050613c89565b5050565b601f821115613cec57613cbd81613b8c565b613cc684613ba1565b81016020851015613cd5578190505b613ce9613ce185613ba1565b830182613c88565b50505b505050565b600082821c905092915050565b6000613d0f60001984600802613cf1565b1980831691505092915050565b6000613d288383613cfe565b9150826002028217905092915050565b613d41826127ff565b67ffffffffffffffff811115613d5a57613d59612a0b565b5b613d648254612e3d565b613d6f828285613cab565b600060209050601f831160018114613da25760008415613d90578287015190505b613d9a8582613d1c565b865550613e02565b601f198416613db086613b8c565b60005b82811015613dd857848901518255600182019150602085019450602081019050613db3565b86831015613df55784890151613df1601f891682613cfe565b8355505b6001600288020188555050505b505050505050565b7f4552433732313a20617070726f766520746f2063616c6c657200000000000000600082015250565b6000613e4060198361280a565b9150613e4b82613e0a565b602082019050919050565b60006020820190508181036000830152613e6f81613e33565b9050919050565b7f4552433732313a207472616e7366657220746f206e6f6e20455243373231526560008201527f63656976657220696d706c656d656e7465720000000000000000000000000000602082015250565b6000613ed260328361280a565b9150613edd82613e76565b604082019050919050565b60006020820190508181036000830152613f0181613ec5565b9050919050565b6000613f13826128b1565b9150613f1e836128b1565b925082613f2e57613f2d613649565b5b828204905092915050565b7f272066696c6c3d277472616e73706172656e7427207374726f6b653d27000000600082015250565b6000613f6f601d836131dd565b9150613f7a82613f39565b601d82019050919050565b7f27202f3e00000000000000000000000000000000000000000000000000000000600082015250565b6000613fbb6004836131dd565b9150613fc682613f85565b600482019050919050565b6000613fdd82856131e8565b9150613fe882613f62565b9150613ff482846131e8565b9150613fff82613fae565b91508190509392505050565b6000614016826128b1565b9150614021836128b1565b925082820261402f816128b1565b915082820484148315176140465761404561343b565b5b5092915050565b600081519050919050565b600082825260208201905092915050565b60006140748261404d565b61407e8185614058565b935061408e81856020860161281b565b61409781612845565b840191505092915050565b60006080820190506140b76000830187612970565b6140c46020830186612970565b6140d16040830185612914565b81810360608301526140e38184614069565b905095945050505050565b6000815190506140fd81612770565b92915050565b6000602082840312156141195761411861273a565b5b6000614127848285016140ee565b91505092915050565b7f2000000000000000000000000000000000000000000000000000000000000000600082015250565b60006141666001836131dd565b915061417182614130565b600182019050919050565b600061418882866131e8565b915061419382614159565b915061419f82856131e8565b91506141aa82614159565b91506141b682846131e8565b91506141c182614159565b9150819050949350505050565b7f4552433732313a206d696e7420746f20746865207a65726f2061646472657373600082015250565b600061420460208361280a565b915061420f826141ce565b602082019050919050565b60006020820190508181036000830152614233816141f7565b9050919050565b7f4552433732313a20746f6b656e20616c7265616479206d696e74656400000000600082015250565b6000614270601c8361280a565b915061427b8261423a565b602082019050919050565b6000602082019050818103600083015261429f81614263565b905091905056fe4142434445464748494a4b4c4d4e4f505152535455565758595a6162636465666768696a6b6c6d6e6f707172737475767778797a303132333435363738392b2fa2646970667358221220d3de430cabb9263e0d7ccdb9a2f6339c0709abebeb73dc46824412d3c19b635f64736f6c63430008110033",
  "devdoc": {
    "kind": "dev",
    "methods": {
      "approve(address,uint256)": {
        "details": "See {IERC721-approve}."
      },
      "balanceOf(address)": {
        "details": "See {IERC721-balanceOf}."
      },
      "getApproved(uint256)": {
        "details": "See {IERC721-getApproved}."
      },
      "isApprovedForAll(address,address)": {
        "details": "See {IERC721-isApprovedForAll}."
      },
      "name()": {
        "details": "See {IERC721Metadata-name}."
      },
      "ownerOf(uint256)": {
        "details": "See {IERC721-ownerOf}."
      },
      "safeTransferFrom(address,address,uint256)": {
        "details": "See {IERC721-safeTransferFrom}."
      },
      "safeTransferFrom(address,address,uint256,bytes)": {
        "details": "See {IERC721-safeTransferFrom}."
      },
      "setApprovalForAll(address,bool)": {
        "details": "See {IERC721-setApprovalForAll}."
      },
      "supportsInterface(bytes4)": {
        "details": "See {IERC165-supportsInterface}."
      },
      "symbol()": {
        "details": "See {IERC721Metadata-symbol}."
      },
      "tokenURI(uint256)": {
        "details": "See {IERC721Metadata-tokenURI}."
      },
      "transferFrom(address,address,uint256)": {
        "details": "See {IERC721-transferFrom}."
      }
    },
    "version": 1
  },
  "userdoc": {
    "kind": "user",
    "methods": {},
    "version": 1
  },
  "storageLayout": {
    "storage": [
      {
        "astId": 179,
        "contract": "contracts/RandomNFT.sol:RandomSVGNFT",
        "label": "_name",
        "offset": 0,
        "slot": "0",
        "type": "t_string_storage"
      },
      {
        "astId": 181,
        "contract": "contracts/RandomNFT.sol:RandomSVGNFT",
        "label": "_symbol",
        "offset": 0,
        "slot": "1",
        "type": "t_string_storage"
      },
      {
        "astId": 185,
        "contract": "contracts/RandomNFT.sol:RandomSVGNFT",
        "label": "_owners",
        "offset": 0,
        "slot": "2",
        "type": "t_mapping(t_uint256,t_address)"
      },
      {
        "astId": 189,
        "contract": "contracts/RandomNFT.sol:RandomSVGNFT",
        "label": "_balances",
        "offset": 0,
        "slot": "3",
        "type": "t_mapping(t_address,t_uint256)"
      },
      {
        "astId": 193,
        "contract": "contracts/RandomNFT.sol:RandomSVGNFT",
        "label": "_tokenApprovals",
        "offset": 0,
        "slot": "4",
        "type": "t_mapping(t_uint256,t_address)"
      },
      {
        "astId": 199,
        "contract": "contracts/RandomNFT.sol:RandomSVGNFT",
        "label": "_operatorApprovals",
        "offset": 0,
        "slot": "5",
        "type": "t_mapping(t_address,t_mapping(t_address,t_bool))"
      },
      {
        "astId": 1167,
        "contract": "contracts/RandomNFT.sol:RandomSVGNFT",
        "label": "_tokenURIs",
        "offset": 0,
        "slot": "6",
        "type": "t_mapping(t_uint256,t_string_storage)"
      },
      {
        "astId": 2034,
        "contract": "contracts/RandomNFT.sol:RandomSVGNFT",
        "label": "maxNumberOfPaths",
        "offset": 0,
        "slot": "7",
        "type": "t_uint256"
      },
      {
        "astId": 2036,
        "contract": "contracts/RandomNFT.sol:RandomSVGNFT",
        "label": "maxNumberOfPathCommands",
        "offset": 0,
        "slot": "8",
        "type": "t_uint256"
      },
      {
        "astId": 2038,
        "contract": "contracts/RandomNFT.sol:RandomSVGNFT",
        "label": "size",
        "offset": 0,
        "slot": "9",
        "type": "t_uint256"
      },
      {
        "astId": 2041,
        "contract": "contracts/RandomNFT.sol:RandomSVGNFT",
        "label": "pathCommands",
        "offset": 0,
        "slot": "10",
        "type": "t_array(t_string_storage)dyn_storage"
      },
      {
        "astId": 2044,
        "contract": "contracts/RandomNFT.sol:RandomSVGNFT",
        "label": "colors",
        "offset": 0,
        "slot": "11",
        "type": "t_array(t_string_storage)dyn_storage"
      },
      {
        "astId": 2061,
        "contract": "contracts/RandomNFT.sol:RandomSVGNFT",
        "label": "tokenCounter",
        "offset": 0,
        "slot": "12",
        "type": "t_uint256"
      },
      {
        "astId": 2065,
        "contract": "contracts/RandomNFT.sol:RandomSVGNFT",
        "label": "requestIdToSender",
        "offset": 0,
        "slot": "13",
        "type": "t_mapping(t_uint256,t_address)"
      },
      {
        "astId": 2069,
        "contract": "contracts/RandomNFT.sol:RandomSVGNFT",
        "label": "requestIdToTokenId",
        "offset": 0,
        "slot": "14",
        "type": "t_mapping(t_uint256,t_uint256)"
      },
      {
        "astId": 2073,
        "contract": "contracts/RandomNFT.sol:RandomSVGNFT",
        "label": "tokenIdToRandomNumber",
        "offset": 0,
        "slot": "15",
        "type": "t_mapping(t_uint256,t_uint256)"
      }
    ],
    "types": {
      "t_address": {
        "encoding": "inplace",
        "label": "address",
        "numberOfBytes": "20"
      },
      "t_array(t_string_storage)dyn_storage": {
        "base": "t_string_storage",
        "encoding": "dynamic_array",
        "label": "string[]",
        "numberOfBytes": "32"
      },
      "t_bool": {
        "encoding": "inplace",
        "label": "bool",
        "numberOfBytes": "1"
      },
      "t_mapping(t_address,t_bool)": {
        "encoding": "mapping",
        "key": "t_address",
        "label": "mapping(address => bool)",
        "numberOfBytes": "32",
        "value": "t_bool"
      },
      "t_mapping(t_address,t_mapping(t_address,t_bool))": {
        "encoding": "mapping",
        "key": "t_address",
        "label": "mapping(address => mapping(address => bool))",
        "numberOfBytes": "32",
        "value": "t_mapping(t_address,t_bool)"
      },
      "t_mapping(t_address,t_uint256)": {
        "encoding": "mapping",
        "key": "t_address",
        "label": "mapping(address => uint256)",
        "numberOfBytes": "32",
        "value": "t_uint256"
      },
      "t_mapping(t_uint256,t_address)": {
        "encoding": "mapping",
        "key": "t_uint256",
        "label": "mapping(uint256 => address)",
        "numberOfBytes": "32",
        "value": "t_address"
      },
      "t_mapping(t_uint256,t_string_storage)": {
        "encoding": "mapping",
        "key": "t_uint256",
        "label": "mapping(uint256 => string)",
        "numberOfBytes": "32",
        "value": "t_string_storage"
      },
      "t_mapping(t_uint256,t_uint256)": {
        "encoding": "mapping",
        "key": "t_uint256",
        "label": "mapping(uint256 => uint256)",
        "numberOfBytes": "32",
        "value": "t_uint256"
      },
      "t_string_storage": {
        "encoding": "bytes",
        "label": "string",
        "numberOfBytes": "32"
      },
      "t_uint256": {
        "encoding": "inplace",
        "label": "uint256",
        "numberOfBytes": "32"
      }
    }
  }
}