{
  "address": "0xe7f1725E7734CE288F8367e1Bb143E90bb3F0512",
  "abi": [
    {
      "inputs": [],
      "stateMutability": "nonpayable",
      "type": "constructor"
    },
    {
      "anonymous": false,
      "inputs": [
        {
          "indexed": true,
          "internalType": "address",
          "name": "owner",
          "type": "address"
        },
        {
          "indexed": true,
          "internalType": "address",
          "name": "approved",
          "type": "address"
        },
        {
          "indexed": true,
          "internalType": "uint256",
          "name": "tokenId",
          "type": "uint256"
        }
      ],
      "name": "Approval",
      "type": "event"
    },
    {
      "anonymous": false,
      "inputs": [
        {
          "indexed": true,
          "internalType": "address",
          "name": "owner",
          "type": "address"
        },
        {
          "indexed": true,
          "internalType": "address",
          "name": "operator",
          "type": "address"
        },
        {
          "indexed": false,
          "internalType": "bool",
          "name": "approved",
          "type": "bool"
        }
      ],
      "name": "ApprovalForAll",
      "type": "event"
    },
    {
      "anonymous": false,
      "inputs": [
        {
          "indexed": true,
          "internalType": "address",
          "name": "from",
          "type": "address"
        },
        {
          "indexed": true,
          "internalType": "address",
          "name": "to",
          "type": "address"
        },
        {
          "indexed": true,
          "internalType": "uint256",
          "name": "tokenId",
          "type": "uint256"
        }
      ],
      "name": "Transfer",
      "type": "event"
    },
    {
      "inputs": [
        {
          "internalType": "address",
          "name": "to",
          "type": "address"
        },
        {
          "internalType": "uint256",
          "name": "tokenId",
          "type": "uint256"
        }
      ],
      "name": "approve",
      "outputs": [],
      "stateMutability": "nonpayable",
      "type": "function"
    },
    {
      "inputs": [
        {
          "internalType": "address",
          "name": "owner",
          "type": "address"
        }
      ],
      "name": "balanceOf",
      "outputs": [
        {
          "internalType": "uint256",
          "name": "",
          "type": "uint256"
        }
      ],
      "stateMutability": "view",
      "type": "function"
    },
    {
      "inputs": [
        {
          "internalType": "string",
          "name": "svg",
          "type": "string"
        }
      ],
      "name": "create",
      "outputs": [],
      "stateMutability": "nonpayable",
      "type": "function"
    },
    {
      "inputs": [
        {
          "internalType": "string",
          "name": "imageURI",
          "type": "string"
        }
      ],
      "name": "formatTokenURI",
      "outputs": [
        {
          "internalType": "string",
          "name": "",
          "type": "string"
        }
      ],
      "stateMutability": "view",
      "type": "function"
    },
    {
      "inputs": [
        {
          "internalType": "uint256",
          "name": "tokenId",
          "type": "uint256"
        }
      ],
      "name": "getApproved",
      "outputs": [
        {
          "internalType": "address",
          "name": "",
          "type": "address"
        }
      ],
      "stateMutability": "view",
      "type": "function"
    },
    {
      "inputs": [
        {
          "internalType": "address",
          "name": "owner",
          "type": "address"
        },
        {
          "internalType": "address",
          "name": "operator",
          "type": "address"
        }
      ],
      "name": "isApprovedForAll",
      "outputs": [
        {
          "internalType": "bool",
          "name": "",
          "type": "bool"
        }
      ],
      "stateMutability": "view",
      "type": "function"
    },
    {
      "inputs": [],
      "name": "name",
      "outputs": [
        {
          "internalType": "string",
          "name": "",
          "type": "string"
        }
      ],
      "stateMutability": "view",
      "type": "function"
    },
    {
      "inputs": [
        {
          "internalType": "uint256",
          "name": "tokenId",
          "type": "uint256"
        }
      ],
      "name": "ownerOf",
      "outputs": [
        {
          "internalType": "address",
          "name": "",
          "type": "address"
        }
      ],
      "stateMutability": "view",
      "type": "function"
    },
    {
      "inputs": [],
      "name": "s_tokenCounter",
      "outputs": [
        {
          "internalType": "uint256",
          "name": "",
          "type": "uint256"
        }
      ],
      "stateMutability": "view",
      "type": "function"
    },
    {
      "inputs": [
        {
          "internalType": "address",
          "name": "from",
          "type": "address"
        },
        {
          "internalType": "address",
          "name": "to",
          "type": "address"
        },
        {
          "internalType": "uint256",
          "name": "tokenId",
          "type": "uint256"
        }
      ],
      "name": "safeTransferFrom",
      "outputs": [],
      "stateMutability": "nonpayable",
      "type": "function"
    },
    {
      "inputs": [
        {
          "internalType": "address",
          "name": "from",
          "type": "address"
        },
        {
          "internalType": "address",
          "name": "to",
          "type": "address"
        },
        {
          "internalType": "uint256",
          "name": "tokenId",
          "type": "uint256"
        },
        {
          "internalType": "bytes",
          "name": "data",
          "type": "bytes"
        }
      ],
      "name": "safeTransferFrom",
      "outputs": [],
      "stateMutability": "nonpayable",
      "type": "function"
    },
    {
      "inputs": [
        {
          "internalType": "address",
          "name": "operator",
          "type": "address"
        },
        {
          "internalType": "bool",
          "name": "approved",
          "type": "bool"
        }
      ],
      "name": "setApprovalForAll",
      "outputs": [],
      "stateMutability": "nonpayable",
      "type": "function"
    },
    {
      "inputs": [
        {
          "internalType": "bytes4",
          "name": "interfaceId",
          "type": "bytes4"
        }
      ],
      "name": "supportsInterface",
      "outputs": [
        {
          "internalType": "bool",
          "name": "",
          "type": "bool"
        }
      ],
      "stateMutability": "view",
      "type": "function"
    },
    {
      "inputs": [
        {
          "internalType": "string",
          "name": "svg",
          "type": "string"
        }
      ],
      "name": "svgToImageURI",
      "outputs": [
        {
          "internalType": "string",
          "name": "",
          "type": "string"
        }
      ],
      "stateMutability": "pure",
      "type": "function"
    },
    {
      "inputs": [],
      "name": "symbol",
      "outputs": [
        {
          "internalType": "string",
          "name": "",
          "type": "string"
        }
      ],
      "stateMutability": "view",
      "type": "function"
    },
    {
      "inputs": [
        {
          "internalType": "uint256",
          "name": "tokenId",
          "type": "uint256"
        }
      ],
      "name": "tokenURI",
      "outputs": [
        {
          "internalType": "string",
          "name": "",
          "type": "string"
        }
      ],
      "stateMutability": "view",
      "type": "function"
    },
    {
      "inputs": [
        {
          "internalType": "address",
          "name": "from",
          "type": "address"
        },
        {
          "internalType": "address",
          "name": "to",
          "type": "address"
        },
        {
          "internalType": "uint256",
          "name": "tokenId",
          "type": "uint256"
        }
      ],
      "name": "transferFrom",
      "outputs": [],
      "stateMutability": "nonpayable",
      "type": "function"
    }
  ],
  "transactionHash": "0x49392bd466e758a19bb6904b98bbe57808b238db3c3eb45731ee25b152769c79",
  "args": [],
  "numDeployments": 1,
  "solcInputHash": "8bb8764ce0a0db2102a8458cecd71c54",
  "bytecode": "0x60806040523480156200001157600080fd5b506040518060400160405280600681526020017f5356474e465400000000000000000000000000000000000000000000000000008152506040518060400160405280600681526020017f5376674e4654000000000000000000000000000000000000000000000000000081525081600090816200008f91906200032c565b508060019081620000a191906200032c565b505050600060078190555062000413565b600081519050919050565b7f4e487b7100000000000000000000000000000000000000000000000000000000600052604160045260246000fd5b7f4e487b7100000000000000000000000000000000000000000000000000000000600052602260045260246000fd5b600060028204905060018216806200013457607f821691505b6020821081036200014a5762000149620000ec565b5b50919050565b60008190508160005260206000209050919050565b60006020601f8301049050919050565b600082821b905092915050565b600060088302620001b47fffffffffffffffffffffffffffffffffffffffffffffffffffffffffffffffff8262000175565b620001c0868362000175565b95508019841693508086168417925050509392505050565b6000819050919050565b6000819050919050565b60006200020d620002076200020184620001d8565b620001e2565b620001d8565b9050919050565b6000819050919050565b6200022983620001ec565b62000241620002388262000214565b84845462000182565b825550505050565b600090565b6200025862000249565b620002658184846200021e565b505050565b5b818110156200028d57620002816000826200024e565b6001810190506200026b565b5050565b601f821115620002dc57620002a68162000150565b620002b18462000165565b81016020851015620002c1578190505b620002d9620002d08562000165565b8301826200026a565b50505b505050565b600082821c905092915050565b60006200030160001984600802620002e1565b1980831691505092915050565b60006200031c8383620002ee565b9150826002028217905092915050565b6200033782620000b2565b67ffffffffffffffff811115620003535762000352620000bd565b5b6200035f82546200011b565b6200036c82828562000291565b600060209050601f831160018114620003a457600084156200038f578287015190505b6200039b85826200030e565b8655506200040b565b601f198416620003b48662000150565b60005b82811015620003de57848901518255600182019150602085019450602081019050620003b7565b86831015620003fe5784890151620003fa601f891682620002ee565b8355505b6001600288020188555050505b505050505050565b61306080620004236000396000f3fe608060405234801561001057600080fd5b506004361061010b5760003560e01c80636352211e116100a2578063a22cb46511610071578063a22cb465146102de578063b6a46b3b146102fa578063b88d4fde14610316578063c87b56dd14610332578063e985e9c5146103625761010b565b80636352211e1461023057806370a082311461026057806371aee1931461029057806395d89b41146102c05761010b565b80630b21a83b116100de5780630b21a83b146101aa57806323b872dd146101c857806330d871c6146101e457806342842e0e146102145761010b565b806301ffc9a71461011057806306fdde0314610140578063081812fc1461015e578063095ea7b31461018e575b600080fd5b61012a60048036038101906101259190611b5c565b610392565b6040516101379190611ba4565b60405180910390f35b610148610474565b6040516101559190611c4f565b60405180910390f35b61017860048036038101906101739190611ca7565b610506565b6040516101859190611d15565b60405180910390f35b6101a860048036038101906101a39190611d5c565b61054c565b005b6101b2610663565b6040516101bf9190611dab565b60405180910390f35b6101e260048036038101906101dd9190611dc6565b610669565b005b6101fe60048036038101906101f99190611f4e565b6106c9565b60405161020b9190611c4f565b60405180910390f35b61022e60048036038101906102299190611dc6565b610762565b005b61024a60048036038101906102459190611ca7565b610782565b6040516102579190611d15565b60405180910390f35b61027a60048036038101906102759190611f97565b610833565b6040516102879190611dab565b60405180910390f35b6102aa60048036038101906102a59190611f4e565b6108ea565b6040516102b79190611c4f565b60405180910390f35b6102c8610980565b6040516102d59190611c4f565b60405180910390f35b6102f860048036038101906102f39190611ff0565b610a12565b005b610314600480360381019061030f9190611f4e565b610a28565b005b610330600480360381019061032b91906120d1565b610a79565b005b61034c60048036038101906103479190611ca7565b610adb565b6040516103599190611c4f565b60405180910390f35b61037c60048036038101906103779190612154565b610bed565b6040516103899190611ba4565b60405180910390f35b60007f80ac58cd000000000000000000000000000000000000000000000000000000007bffffffffffffffffffffffffffffffffffffffffffffffffffffffff1916827bffffffffffffffffffffffffffffffffffffffffffffffffffffffff1916148061045d57507f5b5e139f000000000000000000000000000000000000000000000000000000007bffffffffffffffffffffffffffffffffffffffffffffffffffffffff1916827bffffffffffffffffffffffffffffffffffffffffffffffffffffffff1916145b8061046d575061046c82610c81565b5b9050919050565b606060008054610483906121c3565b80601f01602080910402602001604051908101604052809291908181526020018280546104af906121c3565b80156104fc5780601f106104d1576101008083540402835291602001916104fc565b820191906000526020600020905b8154815290600101906020018083116104df57829003601f168201915b5050505050905090565b600061051182610ceb565b6004600083815260200190815260200160002060009054906101000a900473ffffffffffffffffffffffffffffffffffffffff169050919050565b600061055782610782565b90508073ffffffffffffffffffffffffffffffffffffffff168373ffffffffffffffffffffffffffffffffffffffff16036105c7576040517f08c379a00000000000000000000000000000000000000000000000000000000081526004016105be90612266565b60405180910390fd5b8073ffffffffffffffffffffffffffffffffffffffff166105e6610d36565b73ffffffffffffffffffffffffffffffffffffffff16148061061557506106148161060f610d36565b610bed565b5b610654576040517f08c379a000000000000000000000000000000000000000000000000000000000815260040161064b906122f8565b60405180910390fd5b61065e8383610d3e565b505050565b60075481565b61067a610674610d36565b82610df7565b6106b9576040517f08c379a00000000000000000000000000000000000000000000000000000000081526004016106b09061238a565b60405180910390fd5b6106c4838383610e8c565b505050565b606060006040518060400160405280601a81526020017f646174613a696d6167652f7376672b786d6c3b6261736536342c0000000000008152509050600061072f8460405160200161071b91906123e6565b6040516020818303038152906040526110f2565b9050600082826040516020016107469291906123fd565b6040516020818303038152906040529050809350505050919050565b61077d83838360405180602001604052806000815250610a79565b505050565b6000806002600084815260200190815260200160002060009054906101000a900473ffffffffffffffffffffffffffffffffffffffff169050600073ffffffffffffffffffffffffffffffffffffffff168173ffffffffffffffffffffffffffffffffffffffff160361082a576040517f08c379a00000000000000000000000000000000000000000000000000000000081526004016108219061246d565b60405180910390fd5b80915050919050565b60008073ffffffffffffffffffffffffffffffffffffffff168273ffffffffffffffffffffffffffffffffffffffff16036108a3576040517f08c379a000000000000000000000000000000000000000000000000000000000815260040161089a906124ff565b60405180910390fd5b600360008373ffffffffffffffffffffffffffffffffffffffff1673ffffffffffffffffffffffffffffffffffffffff168152602001908152602001600020549050919050565b606060006040518060400160405280601d81526020017f646174613a6170706c69636174696f6e2f6a736f6e3b6261736536342c000000815250905080610958610932610474565b856040516020016109449291906126c1565b6040516020818303038152906040526110f2565b6040516020016109699291906123fd565b604051602081830303815290604052915050919050565b60606001805461098f906121c3565b80601f01602080910402602001604051908101604052809291908181526020018280546109bb906121c3565b8015610a085780601f106109dd57610100808354040283529160200191610a08565b820191906000526020600020905b8154815290600101906020018083116109eb57829003601f168201915b5050505050905090565b610a24610a1d610d36565b838361126a565b5050565b610a34336007546113d6565b6000610a3f826106c9565b90506000610a4c826108ea565b9050610a5a600754826113f4565b600160076000828254610a6d919061274b565b92505081905550505050565b610a8a610a84610d36565b83610df7565b610ac9576040517f08c379a0000000000000000000000000000000000000000000000000000000008152600401610ac09061238a565b60405180910390fd5b610ad584848484611461565b50505050565b6060610ae682610ceb565b6000600660008481526020019081526020016000208054610b06906121c3565b80601f0160208091040260200160405190810160405280929190818152602001828054610b32906121c3565b8015610b7f5780601f10610b5457610100808354040283529160200191610b7f565b820191906000526020600020905b815481529060010190602001808311610b6257829003601f168201915b505050505090506000610b906114bd565b90506000815103610ba5578192505050610be8565b600082511115610bda578082604051602001610bc29291906123fd565b60405160208183030381529060405292505050610be8565b610be3846114d4565b925050505b919050565b6000600560008473ffffffffffffffffffffffffffffffffffffffff1673ffffffffffffffffffffffffffffffffffffffff16815260200190815260200160002060008373ffffffffffffffffffffffffffffffffffffffff1673ffffffffffffffffffffffffffffffffffffffff16815260200190815260200160002060009054906101000a900460ff16905092915050565b60007f01ffc9a7000000000000000000000000000000000000000000000000000000007bffffffffffffffffffffffffffffffffffffffffffffffffffffffff1916827bffffffffffffffffffffffffffffffffffffffffffffffffffffffff1916149050919050565b610cf48161153c565b610d33576040517f08c379a0000000000000000000000000000000000000000000000000000000008152600401610d2a9061246d565b60405180910390fd5b50565b600033905090565b816004600083815260200190815260200160002060006101000a81548173ffffffffffffffffffffffffffffffffffffffff021916908373ffffffffffffffffffffffffffffffffffffffff160217905550808273ffffffffffffffffffffffffffffffffffffffff16610db183610782565b73ffffffffffffffffffffffffffffffffffffffff167f8c5be1e5ebec7d5bd14f71427d1e84f3dd0314c0f7b2291e5b200ac8c7c3b92560405160405180910390a45050565b600080610e0383610782565b90508073ffffffffffffffffffffffffffffffffffffffff168473ffffffffffffffffffffffffffffffffffffffff161480610e455750610e448185610bed565b5b80610e8357508373ffffffffffffffffffffffffffffffffffffffff16610e6b84610506565b73ffffffffffffffffffffffffffffffffffffffff16145b91505092915050565b8273ffffffffffffffffffffffffffffffffffffffff16610eac82610782565b73ffffffffffffffffffffffffffffffffffffffff1614610f02576040517f08c379a0000000000000000000000000000000000000000000000000000000008152600401610ef9906127f1565b60405180910390fd5b600073ffffffffffffffffffffffffffffffffffffffff168273ffffffffffffffffffffffffffffffffffffffff1603610f71576040517f08c379a0000000000000000000000000000000000000000000000000000000008152600401610f6890612883565b60405180910390fd5b610f7c8383836115a8565b610f87600082610d3e565b6001600360008573ffffffffffffffffffffffffffffffffffffffff1673ffffffffffffffffffffffffffffffffffffffff1681526020019081526020016000206000828254610fd791906128a3565b925050819055506001600360008473ffffffffffffffffffffffffffffffffffffffff1673ffffffffffffffffffffffffffffffffffffffff168152602001908152602001600020600082825461102e919061274b565b92505081905550816002600083815260200190815260200160002060006101000a81548173ffffffffffffffffffffffffffffffffffffffff021916908373ffffffffffffffffffffffffffffffffffffffff160217905550808273ffffffffffffffffffffffffffffffffffffffff168473ffffffffffffffffffffffffffffffffffffffff167fddf252ad1be2c89b69c2b068fc378daa952ba7f163c4a11628f55a4df523b3ef60405160405180910390a46110ed8383836115ad565b505050565b6060600082510361111457604051806020016040528060008152509050611265565b6000604051806060016040528060408152602001612feb6040913990506000600360028551611143919061274b565b61114d9190612906565b60046111599190612937565b9050600060208261116a919061274b565b67ffffffffffffffff81111561118357611182611e23565b5b6040519080825280601f01601f1916602001820160405280156111b55781602001600182028036833780820191505090505b509050818152600183018586518101602084015b81831015611224576003830192508251603f8160121c168501518253600182019150603f81600c1c168501518253600182019150603f8160061c168501518253600182019150603f81168501518253600182019150506111c9565b60038951066001811461123e576002811461124e57611259565b613d3d60f01b6002830352611259565b603d60f81b60018303525b50505050508093505050505b919050565b8173ffffffffffffffffffffffffffffffffffffffff168373ffffffffffffffffffffffffffffffffffffffff16036112d8576040517f08c379a00000000000000000000000000000000000000000000000000000000081526004016112cf906129c5565b60405180910390fd5b80600560008573ffffffffffffffffffffffffffffffffffffffff1673ffffffffffffffffffffffffffffffffffffffff16815260200190815260200160002060008473ffffffffffffffffffffffffffffffffffffffff1673ffffffffffffffffffffffffffffffffffffffff16815260200190815260200160002060006101000a81548160ff0219169083151502179055508173ffffffffffffffffffffffffffffffffffffffff168373ffffffffffffffffffffffffffffffffffffffff167f17307eab39ab6107e8899845ad3d59bd9653f200f220920489ca2b5937696c31836040516113c99190611ba4565b60405180910390a3505050565b6113f08282604051806020016040528060008152506115b2565b5050565b6113fd8261153c565b61143c576040517f08c379a000000000000000000000000000000000000000000000000000000000815260040161143390612a57565b60405180910390fd5b8060066000848152602001908152602001600020908161145c9190612c23565b505050565b61146c848484610e8c565b6114788484848461160d565b6114b7576040517f08c379a00000000000000000000000000000000000000000000000000000000081526004016114ae90612d67565b60405180910390fd5b50505050565b606060405180602001604052806000815250905090565b60606114df82610ceb565b60006114e96114bd565b905060008151116115095760405180602001604052806000815250611534565b8061151384611794565b6040516020016115249291906123fd565b6040516020818303038152906040525b915050919050565b60008073ffffffffffffffffffffffffffffffffffffffff166002600084815260200190815260200160002060009054906101000a900473ffffffffffffffffffffffffffffffffffffffff1673ffffffffffffffffffffffffffffffffffffffff1614159050919050565b505050565b505050565b6115bc83836118f4565b6115c9600084848461160d565b611608576040517f08c379a00000000000000000000000000000000000000000000000000000000081526004016115ff90612d67565b60405180910390fd5b505050565b600061162e8473ffffffffffffffffffffffffffffffffffffffff16611acd565b15611787578373ffffffffffffffffffffffffffffffffffffffff1663150b7a02611657610d36565b8786866040518563ffffffff1660e01b81526004016116799493929190612ddc565b6020604051808303816000875af19250505080156116b557506040513d601f19601f820116820180604052508101906116b29190612e3d565b60015b611737573d80600081146116e5576040519150601f19603f3d011682016040523d82523d6000602084013e6116ea565b606091505b50600081510361172f576040517f08c379a000000000000000000000000000000000000000000000000000000000815260040161172690612d67565b60405180910390fd5b805181602001fd5b63150b7a0260e01b7bffffffffffffffffffffffffffffffffffffffffffffffffffffffff1916817bffffffffffffffffffffffffffffffffffffffffffffffffffffffff19161491505061178c565b600190505b949350505050565b6060600082036117db576040518060400160405280600181526020017f300000000000000000000000000000000000000000000000000000000000000081525090506118ef565b600082905060005b6000821461180d5780806117f690612e6a565b915050600a826118069190612906565b91506117e3565b60008167ffffffffffffffff81111561182957611828611e23565b5b6040519080825280601f01601f19166020018201604052801561185b5781602001600182028036833780820191505090505b5090505b600085146118e85760018261187491906128a3565b9150600a856118839190612eb2565b603061188f919061274b565b60f81b8183815181106118a5576118a4612ee3565b5b60200101907effffffffffffffffffffffffffffffffffffffffffffffffffffffffffffff1916908160001a905350600a856118e19190612906565b945061185f565b8093505050505b919050565b600073ffffffffffffffffffffffffffffffffffffffff168273ffffffffffffffffffffffffffffffffffffffff1603611963576040517f08c379a000000000000000000000000000000000000000000000000000000000815260040161195a90612f5e565b60405180910390fd5b61196c8161153c565b156119ac576040517f08c379a00000000000000000000000000000000000000000000000000000000081526004016119a390612fca565b60405180910390fd5b6119b8600083836115a8565b6001600360008473ffffffffffffffffffffffffffffffffffffffff1673ffffffffffffffffffffffffffffffffffffffff1681526020019081526020016000206000828254611a08919061274b565b92505081905550816002600083815260200190815260200160002060006101000a81548173ffffffffffffffffffffffffffffffffffffffff021916908373ffffffffffffffffffffffffffffffffffffffff160217905550808273ffffffffffffffffffffffffffffffffffffffff16600073ffffffffffffffffffffffffffffffffffffffff167fddf252ad1be2c89b69c2b068fc378daa952ba7f163c4a11628f55a4df523b3ef60405160405180910390a4611ac9600083836115ad565b5050565b6000808273ffffffffffffffffffffffffffffffffffffffff163b119050919050565b6000604051905090565b600080fd5b600080fd5b60007fffffffff0000000000000000000000000000000000000000000000000000000082169050919050565b611b3981611b04565b8114611b4457600080fd5b50565b600081359050611b5681611b30565b92915050565b600060208284031215611b7257611b71611afa565b5b6000611b8084828501611b47565b91505092915050565b60008115159050919050565b611b9e81611b89565b82525050565b6000602082019050611bb96000830184611b95565b92915050565b600081519050919050565b600082825260208201905092915050565b60005b83811015611bf9578082015181840152602081019050611bde565b60008484015250505050565b6000601f19601f8301169050919050565b6000611c2182611bbf565b611c2b8185611bca565b9350611c3b818560208601611bdb565b611c4481611c05565b840191505092915050565b60006020820190508181036000830152611c698184611c16565b905092915050565b6000819050919050565b611c8481611c71565b8114611c8f57600080fd5b50565b600081359050611ca181611c7b565b92915050565b600060208284031215611cbd57611cbc611afa565b5b6000611ccb84828501611c92565b91505092915050565b600073ffffffffffffffffffffffffffffffffffffffff82169050919050565b6000611cff82611cd4565b9050919050565b611d0f81611cf4565b82525050565b6000602082019050611d2a6000830184611d06565b92915050565b611d3981611cf4565b8114611d4457600080fd5b50565b600081359050611d5681611d30565b92915050565b60008060408385031215611d7357611d72611afa565b5b6000611d8185828601611d47565b9250506020611d9285828601611c92565b9150509250929050565b611da581611c71565b82525050565b6000602082019050611dc06000830184611d9c565b92915050565b600080600060608486031215611ddf57611dde611afa565b5b6000611ded86828701611d47565b9350506020611dfe86828701611d47565b9250506040611e0f86828701611c92565b9150509250925092565b600080fd5b600080fd5b7f4e487b7100000000000000000000000000000000000000000000000000000000600052604160045260246000fd5b611e5b82611c05565b810181811067ffffffffffffffff82111715611e7a57611e79611e23565b5b80604052505050565b6000611e8d611af0565b9050611e998282611e52565b919050565b600067ffffffffffffffff821115611eb957611eb8611e23565b5b611ec282611c05565b9050602081019050919050565b82818337600083830152505050565b6000611ef1611eec84611e9e565b611e83565b905082815260208101848484011115611f0d57611f0c611e1e565b5b611f18848285611ecf565b509392505050565b600082601f830112611f3557611f34611e19565b5b8135611f45848260208601611ede565b91505092915050565b600060208284031215611f6457611f63611afa565b5b600082013567ffffffffffffffff811115611f8257611f81611aff565b5b611f8e84828501611f20565b91505092915050565b600060208284031215611fad57611fac611afa565b5b6000611fbb84828501611d47565b91505092915050565b611fcd81611b89565b8114611fd857600080fd5b50565b600081359050611fea81611fc4565b92915050565b6000806040838503121561200757612006611afa565b5b600061201585828601611d47565b925050602061202685828601611fdb565b9150509250929050565b600067ffffffffffffffff82111561204b5761204a611e23565b5b61205482611c05565b9050602081019050919050565b600061207461206f84612030565b611e83565b9050828152602081018484840111156120905761208f611e1e565b5b61209b848285611ecf565b509392505050565b600082601f8301126120b8576120b7611e19565b5b81356120c8848260208601612061565b91505092915050565b600080600080608085870312156120eb576120ea611afa565b5b60006120f987828801611d47565b945050602061210a87828801611d47565b935050604061211b87828801611c92565b925050606085013567ffffffffffffffff81111561213c5761213b611aff565b5b612148878288016120a3565b91505092959194509250565b6000806040838503121561216b5761216a611afa565b5b600061217985828601611d47565b925050602061218a85828601611d47565b9150509250929050565b7f4e487b7100000000000000000000000000000000000000000000000000000000600052602260045260246000fd5b600060028204905060018216806121db57607f821691505b6020821081036121ee576121ed612194565b5b50919050565b7f4552433732313a20617070726f76616c20746f2063757272656e74206f776e6560008201527f7200000000000000000000000000000000000000000000000000000000000000602082015250565b6000612250602183611bca565b915061225b826121f4565b604082019050919050565b6000602082019050818103600083015261227f81612243565b9050919050565b7f4552433732313a20617070726f76652063616c6c6572206973206e6f7420746f60008201527f6b656e206f776e6572206e6f7220617070726f76656420666f7220616c6c0000602082015250565b60006122e2603e83611bca565b91506122ed82612286565b604082019050919050565b60006020820190508181036000830152612311816122d5565b9050919050565b7f4552433732313a2063616c6c6572206973206e6f7420746f6b656e206f776e6560008201527f72206e6f7220617070726f766564000000000000000000000000000000000000602082015250565b6000612374602e83611bca565b915061237f82612318565b604082019050919050565b600060208201905081810360008301526123a381612367565b9050919050565b600081905092915050565b60006123c082611bbf565b6123ca81856123aa565b93506123da818560208601611bdb565b80840191505092915050565b60006123f282846123b5565b915081905092915050565b600061240982856123b5565b915061241582846123b5565b91508190509392505050565b7f4552433732313a20696e76616c696420746f6b656e2049440000000000000000600082015250565b6000612457601883611bca565b915061246282612421565b602082019050919050565b600060208201905081810360008301526124868161244a565b9050919050565b7f4552433732313a2061646472657373207a65726f206973206e6f74206120766160008201527f6c6964206f776e65720000000000000000000000000000000000000000000000602082015250565b60006124e9602983611bca565b91506124f48261248d565b604082019050919050565b60006020820190508181036000830152612518816124dc565b9050919050565b7f7b226e616d65223a220000000000000000000000000000000000000000000000600082015250565b60006125556009836123aa565b91506125608261251f565b600982019050919050565b7f222c226465736372697074696f6e223a22416e20535647204e46542200000000600082015250565b60006125a1601c836123aa565b91506125ac8261256b565b601c82019050919050565b7f2261747472696275746573223a5b7b22617765736f6d656e657373223a22313060008201527f3025227d5d000000000000000000000000000000000000000000000000000000602082015250565b60006126136025836123aa565b915061261e826125b7565b602582019050919050565b7f22696d616765223a220000000000000000000000000000000000000000000000600082015250565b600061265f6009836123aa565b915061266a82612629565b600982019050919050565b7f227d000000000000000000000000000000000000000000000000000000000000600082015250565b60006126ab6002836123aa565b91506126b682612675565b600282019050919050565b60006126cc82612548565b91506126d882856123b5565b91506126e382612594565b91506126ee82612606565b91506126f982612652565b915061270582846123b5565b91506127108261269e565b91508190509392505050565b7f4e487b7100000000000000000000000000000000000000000000000000000000600052601160045260246000fd5b600061275682611c71565b915061276183611c71565b92508282019050808211156127795761277861271c565b5b92915050565b7f4552433732313a207472616e736665722066726f6d20696e636f72726563742060008201527f6f776e6572000000000000000000000000000000000000000000000000000000602082015250565b60006127db602583611bca565b91506127e68261277f565b604082019050919050565b6000602082019050818103600083015261280a816127ce565b9050919050565b7f4552433732313a207472616e7366657220746f20746865207a65726f2061646460008201527f7265737300000000000000000000000000000000000000000000000000000000602082015250565b600061286d602483611bca565b915061287882612811565b604082019050919050565b6000602082019050818103600083015261289c81612860565b9050919050565b60006128ae82611c71565b91506128b983611c71565b92508282039050818111156128d1576128d061271c565b5b92915050565b7f4e487b7100000000000000000000000000000000000000000000000000000000600052601260045260246000fd5b600061291182611c71565b915061291c83611c71565b92508261292c5761292b6128d7565b5b828204905092915050565b600061294282611c71565b915061294d83611c71565b925082820261295b81611c71565b915082820484148315176129725761297161271c565b5b5092915050565b7f4552433732313a20617070726f766520746f2063616c6c657200000000000000600082015250565b60006129af601983611bca565b91506129ba82612979565b602082019050919050565b600060208201905081810360008301526129de816129a2565b9050919050565b7f45524337323155524953746f726167653a2055524920736574206f66206e6f6e60008201527f6578697374656e7420746f6b656e000000000000000000000000000000000000602082015250565b6000612a41602e83611bca565b9150612a4c826129e5565b604082019050919050565b60006020820190508181036000830152612a7081612a34565b9050919050565b60008190508160005260206000209050919050565b60006020601f8301049050919050565b600082821b905092915050565b600060088302612ad97fffffffffffffffffffffffffffffffffffffffffffffffffffffffffffffffff82612a9c565b612ae38683612a9c565b95508019841693508086168417925050509392505050565b6000819050919050565b6000612b20612b1b612b1684611c71565b612afb565b611c71565b9050919050565b6000819050919050565b612b3a83612b05565b612b4e612b4682612b27565b848454612aa9565b825550505050565b600090565b612b63612b56565b612b6e818484612b31565b505050565b5b81811015612b9257612b87600082612b5b565b600181019050612b74565b5050565b601f821115612bd757612ba881612a77565b612bb184612a8c565b81016020851015612bc0578190505b612bd4612bcc85612a8c565b830182612b73565b50505b505050565b600082821c905092915050565b6000612bfa60001984600802612bdc565b1980831691505092915050565b6000612c138383612be9565b9150826002028217905092915050565b612c2c82611bbf565b67ffffffffffffffff811115612c4557612c44611e23565b5b612c4f82546121c3565b612c5a828285612b96565b600060209050601f831160018114612c8d5760008415612c7b578287015190505b612c858582612c07565b865550612ced565b601f198416612c9b86612a77565b60005b82811015612cc357848901518255600182019150602085019450602081019050612c9e565b86831015612ce05784890151612cdc601f891682612be9565b8355505b6001600288020188555050505b505050505050565b7f4552433732313a207472616e7366657220746f206e6f6e20455243373231526560008201527f63656976657220696d706c656d656e7465720000000000000000000000000000602082015250565b6000612d51603283611bca565b9150612d5c82612cf5565b604082019050919050565b60006020820190508181036000830152612d8081612d44565b9050919050565b600081519050919050565b600082825260208201905092915050565b6000612dae82612d87565b612db88185612d92565b9350612dc8818560208601611bdb565b612dd181611c05565b840191505092915050565b6000608082019050612df16000830187611d06565b612dfe6020830186611d06565b612e0b6040830185611d9c565b8181036060830152612e1d8184612da3565b905095945050505050565b600081519050612e3781611b30565b92915050565b600060208284031215612e5357612e52611afa565b5b6000612e6184828501612e28565b91505092915050565b6000612e7582611c71565b91507fffffffffffffffffffffffffffffffffffffffffffffffffffffffffffffffff8203612ea757612ea661271c565b5b600182019050919050565b6000612ebd82611c71565b9150612ec883611c71565b925082612ed857612ed76128d7565b5b828206905092915050565b7f4e487b7100000000000000000000000000000000000000000000000000000000600052603260045260246000fd5b7f4552433732313a206d696e7420746f20746865207a65726f2061646472657373600082015250565b6000612f48602083611bca565b9150612f5382612f12565b602082019050919050565b60006020820190508181036000830152612f7781612f3b565b9050919050565b7f4552433732313a20746f6b656e20616c7265616479206d696e74656400000000600082015250565b6000612fb4601c83611bca565b9150612fbf82612f7e565b602082019050919050565b60006020820190508181036000830152612fe381612fa7565b905091905056fe4142434445464748494a4b4c4d4e4f505152535455565758595a6162636465666768696a6b6c6d6e6f707172737475767778797a303132333435363738392b2fa26469706673582212201c56d1ab91e8def2ff43508aba1b0bd4bce8e0ce843eb852248a2547a3243edb64736f6c63430008110033",
  "devdoc": {
    "kind": "dev",
    "methods": {
      "approve(address,uint256)": {
        "details": "See {IERC721-approve}."
      },
      "balanceOf(address)": {
        "details": "See {IERC721-balanceOf}."
      },
      "getApproved(uint256)": {
        "details": "See {IERC721-getApproved}."
      },
      "isApprovedForAll(address,address)": {
        "details": "See {IERC721-isApprovedForAll}."
      },
      "name()": {
        "details": "See {IERC721Metadata-name}."
      },
      "ownerOf(uint256)": {
        "details": "See {IERC721-ownerOf}."
      },
      "safeTransferFrom(address,address,uint256)": {
        "details": "See {IERC721-safeTransferFrom}."
      },
      "safeTransferFrom(address,address,uint256,bytes)": {
        "details": "See {IERC721-safeTransferFrom}."
      },
      "setApprovalForAll(address,bool)": {
        "details": "See {IERC721-setApprovalForAll}."
      },
      "supportsInterface(bytes4)": {
        "details": "See {IERC165-supportsInterface}."
      },
      "symbol()": {
        "details": "See {IERC721Metadata-symbol}."
      },
      "tokenURI(uint256)": {
        "details": "See {IERC721Metadata-tokenURI}."
      },
      "transferFrom(address,address,uint256)": {
        "details": "See {IERC721-transferFrom}."
      }
    },
    "version": 1
  },
  "userdoc": {
    "kind": "user",
    "methods": {},
    "version": 1
  },
  "storageLayout": {
    "storage": [
      {
        "astId": 179,
        "contract": "contracts/SVGNFT.sol:SVGNFT",
        "label": "_name",
        "offset": 0,
        "slot": "0",
        "type": "t_string_storage"
      },
      {
        "astId": 181,
        "contract": "contracts/SVGNFT.sol:SVGNFT",
        "label": "_symbol",
        "offset": 0,
        "slot": "1",
        "type": "t_string_storage"
      },
      {
        "astId": 185,
        "contract": "contracts/SVGNFT.sol:SVGNFT",
        "label": "_owners",
        "offset": 0,
        "slot": "2",
        "type": "t_mapping(t_uint256,t_address)"
      },
      {
        "astId": 189,
        "contract": "contracts/SVGNFT.sol:SVGNFT",
        "label": "_balances",
        "offset": 0,
        "slot": "3",
        "type": "t_mapping(t_address,t_uint256)"
      },
      {
        "astId": 193,
        "contract": "contracts/SVGNFT.sol:SVGNFT",
        "label": "_tokenApprovals",
        "offset": 0,
        "slot": "4",
        "type": "t_mapping(t_uint256,t_address)"
      },
      {
        "astId": 199,
        "contract": "contracts/SVGNFT.sol:SVGNFT",
        "label": "_operatorApprovals",
        "offset": 0,
        "slot": "5",
        "type": "t_mapping(t_address,t_mapping(t_address,t_bool))"
      },
      {
        "astId": 1167,
        "contract": "contracts/SVGNFT.sol:SVGNFT",
        "label": "_tokenURIs",
        "offset": 0,
        "slot": "6",
        "type": "t_mapping(t_uint256,t_string_storage)"
      },
      {
        "astId": 2636,
        "contract": "contracts/SVGNFT.sol:SVGNFT",
        "label": "s_tokenCounter",
        "offset": 0,
        "slot": "7",
        "type": "t_uint256"
      }
    ],
    "types": {
      "t_address": {
        "encoding": "inplace",
        "label": "address",
        "numberOfBytes": "20"
      },
      "t_bool": {
        "encoding": "inplace",
        "label": "bool",
        "numberOfBytes": "1"
      },
      "t_mapping(t_address,t_bool)": {
        "encoding": "mapping",
        "key": "t_address",
        "label": "mapping(address => bool)",
        "numberOfBytes": "32",
        "value": "t_bool"
      },
      "t_mapping(t_address,t_mapping(t_address,t_bool))": {
        "encoding": "mapping",
        "key": "t_address",
        "label": "mapping(address => mapping(address => bool))",
        "numberOfBytes": "32",
        "value": "t_mapping(t_address,t_bool)"
      },
      "t_mapping(t_address,t_uint256)": {
        "encoding": "mapping",
        "key": "t_address",
        "label": "mapping(address => uint256)",
        "numberOfBytes": "32",
        "value": "t_uint256"
      },
      "t_mapping(t_uint256,t_address)": {
        "encoding": "mapping",
        "key": "t_uint256",
        "label": "mapping(uint256 => address)",
        "numberOfBytes": "32",
        "value": "t_address"
      },
      "t_mapping(t_uint256,t_string_storage)": {
        "encoding": "mapping",
        "key": "t_uint256",
        "label": "mapping(uint256 => string)",
        "numberOfBytes": "32",
        "value": "t_string_storage"
      },
      "t_string_storage": {
        "encoding": "bytes",
        "label": "string",
        "numberOfBytes": "32"
      },
      "t_uint256": {
        "encoding": "inplace",
        "label": "uint256",
        "numberOfBytes": "32"
      }
    }
  }
}